:020000040800F2
:1000000088130020B9020008412C0008312700089D
:100010003F2C0008B11E0008FD450008000000004C
:100020000000000000000000000000003D38000853
:100030007D2300080000000049300008DD3E000874
:10004000D3020008D3020008D3020008D30200083C
:10005000D3020008D302000819240008D3020008C4
:100060001F240008252400082B240008D3020008C0
:10007000D3020008D3020008D3020008D30200080C
:10008000D3020008D3020008D3020008D3020008FC
:10009000E9440008D3020008D3020008D302000894
:1000A000D3020008D3020008D3020008D3020008DC
:1000B000313F0008D3020008D3020008D302000831
:1000C000D3020008D3020008D3020008D3020008BC
:1000D000D302000899400008D3020008D3020008A8
:1000E000D3020008D3020008E1420008D30200084E
:1000F000D3020008D3020008D3020008D30200088C
:10010000D3020008D3020008D3020008D30200087B
:10011000D3020008D3020008D3020008D30200086B
:10012000D3020008D3020008D3020008D30200085B
:1001300000F002F800F0B0F80AA090E8000C824449
:100140008344AAF10107DA4501D100F0A5F8AFF226
:10015000090EBAE80F0013F0010F18BFFB1A43F0A5
:100160000103184780640000A06400000A444FF0B7
:10017000000C10F8013B13F0070408BF10F8014B06
:100180001D1108BF10F8015B641E05D010F8016B4B
:10019000641E01F8016BF9D113F0080F1EBF10F8AF
:1001A000014BAD1C0C1B09D16D1E58BF01F801CBD2
:1001B000FAD505E014F8016B01F8016B6D1EF9D555
:1001C0009142D6D37047000000230024002500266A
:1001D000103A28BF78C1FBD8520728BF30C148BFAA
:1001E0000B6070476E2900F0A782702900F0FB8336
:1001F000662905F0D584652905F0D284672905F0C4
:10020000CF84612905F0CE8403681B0A28BF41F022
:100210008001692900F09080642900F08D807529A3
:1002200000F08A806F2900F08883782900F0C78366
:10023000E92900F02383E42900F02083F52900F068
:100240001D83EF2900F08583F82900F0C683036839
:10025000DB0928BF41F08001632900F0D3877329AF
:1002600000F0D887E32900F0E387F32900F0E8875E
:10027000002070471FB501F039F80400002000216C
:1002800004F056FE401C60600020002104F03AFE9D
:10029000E0601FBD10B510BD00F0FAFF1146FFF77A
:1002A000E9FF04F081FD01F0D7F803B4FFF7F2FF96
:1002B00003BC04F019FD00000948804709480047C5
:1002C000FEE7FEE7FEE7FEE7FEE7FEE7FEE7FEE706
:1002D000FEE7FEE704480549054A064B7047000063
:1002E000E13E000831010008880D0020881300203D
:1002F000880F0020880F0020704700001CB50C46B6
:10030000064B7B4469460090204600F02EFA0446D6
:100310000020694600F03CFA20461CBD8B0400001A
:100320000FB4044910B503AA029800F037FA10BCC4
:100330005DF814FB300000202DE9F0410646002452
:1003400010687529314616A510D000F061F9002813
:1003500002DA404213A507E031688A0701D512A5E9
:1003600002E0490704D511A5012401E000F059F984
:1003700000210A2206F1240709E0B0FBF2FCB0FBE1
:10038000F2F302FB1C00303078541846491C002858
:10039000F3D123462A463046BDE8F04100F073B958
:1003A000000000002D0000002B00000020000000D5
:1003B0002DE9F05F894604464FF0000ADFF874B17A
:1003C000FB44C0F820A02046E1688847002874D08C
:1003D000252806D0D4E901219047206A401C2062DC
:1003E000F1E700265F462046E16888472028054659
:1003F00007DB312D05D2781910F8200C08B106431F
:10040000F1E7B00701D526F00406C4F81CA00027C8
:10041000C4F818A02A2D09D0284604F05EFC38B391
:1004200004EB8708303DC8F8185019E059F8041B50
:10043000204604EB87029161E1688847012F054659
:1004400018D1E069002820DA26F020061DE0D8F84F
:10045000180000EB800005EB40003038C8F81800A9
:100460002046E1688847054604F037FC0028EED1B5
:10047000012F0AD02E2D08D12046E16888477F1C25
:100480000546022F46F02006C4DBA069002803DAE7
:10049000404246F00106A061F00701D026F01006A8
:1004A0006C2D0BD0682D09D04C2D39D06A2D35D04C
:1004B000742D35D07A2D33D016E038E0E1682F4620
:1004C00020468847B842054609D16C2F26D04FF404
:1004D0008060E168064320468847054604E06C2FAB
:1004E0001AD04FF4807006430DB3A5F141001928CE
:1004F00002D8203546F400664A4629462046266042
:100500004E46FFF76FFE80B101280BD0F61D26F096
:10051000070000F1080956E74020E4E78020D8E70B
:100520000020D6E706F104094DE7284652E7206A85
:10053000BDE8F09FF060000010B5431C02E010F829
:10054000011B71B18107FAD14FF0013202C88C1A38
:100550008C4314EAC211F9D0C01A0A0603D0C01E97
:1005600010BDC01A10BD0A0401D0801E10BD0902C2
:10057000FCD0401E10BD4FF000020429C0F01280D4
:1005800010F0030C00F03C82CCF1040CBCF1020F23
:1005900018BF00F8012BA8BF20F8022BA1EB0C011B
:1005A00000F02EBA5FEAC17C24BF00F8012B00F8EE
:1005B000012B48BF00F8012B704770477047704708
:1005C000704770B5044685690068C10601D53026BC
:1005D00000E02026C00707D070BDD4E901213046D5
:1005E0009047206A401C20626D1EF6D570BD70B524
:1005F000044685690078C00707D170BDD4E90121A0
:1006000020209047206A401C20626D1EF6D570BDE8
:1006100009684A0501D540B27047C905FCD500B24A
:10062000704709684A0501D5C0B27047C905FCD5B5
:1006300080B2704770B50C460546012A05D028786F
:10064000800600D5EA69002302E0012305E05B1C77
:10065000934202D2E05C0028F9D1A869E618C01ADA
:10066000A861286A184428622846FFF7AAFF04E018
:10067000D5E9012114F8010B9047B442F8D328467C
:10068000FFF7B5FF70BD2DE9F0470D46994692463C
:10069000044600F124080168880604D5E06921F0C9
:1006A0001001216000E00120A84201DD471B00E0AD
:1006B0000027A1697A1902EB0900081AA0612078C5
:1006C000C00602D42046FFF77CFF002608E0D4E9EC
:1006D00001211AF806009047206A401C761C20620F
:1006E0004E45F4DB2078C0060AD52046FFF769FFA7
:1006F00006E0D4E9012130209047206A401C2062A6
:10070000381EA7F10107F4DC07E0D4E9012118F84D
:1007100005009047206A401C2062281EA5F10105B3
:10072000F3DC2046FFF763FF2078000602D50220A5
:10073000BDE8F0870120FBE711680268006A5305F5
:1007400001D508700AE0D30501D5088006E013063C
:1007500003D5C217C1E9000200E00860012070471C
:1007600001694A1C02610878704700B58FB0CDE975
:1007700001310021059105497944CDE90310114665
:100780006846FFF715FE0FB000BD0000E5FFFFFF54
:100790000A6802F8010B0A6070470000074B70B549
:1007A0000D467B44FFF7E1FF0446284600F04CFD70
:1007B00010B14FF0FF3070BD204670BDEB4500001A
:1007C0002DE9FF5F15468A460446DFF8AC80F84401
:1007D0000027D8E900103E46CDE9001010E03AF8B5
:1007E00016106A4602A800F033FD411C07D021789C
:1007F000890603D5E269391891420DD80744761C61
:100800002078800602D5E069B84205DDAE42E6DB1D
:100810003AF816000028E2D1A069C01BA06120466A
:10082000FFF7CFFED8E90010CDE90010002017E057
:100830003AF818106A4602A800F00AFDB0F1FF3F2E
:1008400081460BD000250DF1080B05E0D4E901210C
:100850001BF8050090476D1C4D45F7D308F10100CA
:10086000B0428046E4DB206A384420622046FFF72D
:10087000BEFEBDE8FF9F0000F65C00002DE9F041E0
:100880008046D21D22F007020025D2E90002F52998
:1008900015A614D0011E72F1000106DA0023D0EB78
:1008A000030063EB020211A608E0D8F800108B07E2
:1008B00001D50FA602E0490701D50EA60125114674
:1008C000002408F1240704E000F0BFF830323A5564
:1008D000641C50EA0102F7D12B46324621464046BD
:1008E000BDE8F041FFF7CFBE000000002D00000082
:1008F0002B0000002000000030B4002100F124048F
:1009000008E002F00705D208303542EA4372DB08FE
:100910006554491C52EA0305F3D10468002310A270
:10092000250707D5A40600D421B1C46901230DA26F
:10093000641EC46130BCFFF7A6BE10B50446214654
:100940001068FFF76EFE02462046BDE81040002307
:10095000D2E7D21D22F00701D1E90023CCE7000045
:100960000000000030000000F0B40D4601880905C9
:1009700002D5214C7C4402E01F4C7C440E34002103
:1009800000F1240608E002F00F071209E75D42EAD1
:1009900003721B097754491C52EA0307F3D102780A
:1009A0000023120704D5702D06D009B1022311349B
:1009B0002246F0BCFFF767BE01231034F8E770B59C
:1009C00004460D4621461068FFF72BFE02462946D5
:1009D0002046BDE870400023C6E7D21D22F0070381
:1009E000D3E90023C0E70368126843F020030360E3
:1009F0000823C3610023B7E7585B00004FF00002F3
:100A000000B5134694469646203922BFA0E80C5004
:100A1000A0E80C50B1F12001BFF4F7AF090728BFDF
:100A2000A0E80C5048BF0CC05DF804EB890028BF5B
:100A300040F8042B08BF704748BF20F8022B11F084
:100A4000804F18BF00F8012B704730B5B0F10A0293
:100A50004FEA900E71F100034EEA817EB0EB0E007A
:100A600061EB91014FEA101E4EEA017E10EB0E0081
:100A700041EB11114FEA102E4EEA016E10EB0E0001
:100A800041EB11214FEA104E4EEA014E10EB0E00E1
:100A900041EB1141401841F100014FEAD00040EA1A
:100AA00041704FEAD10110EB80054FEA810444EA1E
:100AB000907444EB01046D1944EB0404521BA341F0
:100AC0004FF0000348BF0A3200D530BD401C41F151
:100AD000000130BD70472DE9FF4F0C461E464FF018
:100AE000FF378BB0D2E90001DDF860800A908A46BA
:100AF000C1F30A5505B93D46002108464FF00000F4
:100B0000BAF1000F00F4400005DA00EB80004FF46A
:100B1000400101EA50004FEA9059B9F1010F00DDA0
:100B2000B9460A9850EA4A000ED044F61050A5F291
:100B3000FF3545432F14B8F1000F1ED07542291E12
:100B40001EDDC9F100021CE0B8F1010F4FF00000FA
:100B500001D0302103E0F24305E02154401CB042B3
:100B6000FBDB30460022002121540B99C1F808809C
:100B7000C1E900200FB0BDE8F08FBD1B6D1CDEE7A2
:100B80004A4600DA694206A800F0F4FB06AB93E897
:100B9000070003AB83E8070050460A9900F0AAFC5F
:100BA0008DE80700A0F500501F3800900398002D35
:100BB0000ADD42F21F014A460844002303A90390BC
:100BC000684600F013FF09E0A0F500504A461F38C0
:100BD000002303A90390684600F01DFF8DE807007D
:100BE0000004000C03D04FF0FF30410800E0104635
:100BF000B8F1000F03D00022009215461EE0751ECA
:100C000005D4FFF722FF303262556D1EF9D5B34689
:100C10000122084302D000227F1C04E02078302803
:100C200001D100227F1E002A099784D01DE0112DDA
:100C300007DAFFF70AFF303262556D1C50EA0102F5
:100C4000F5D1084302D00098C8B10EE00021681E1B
:100C500005E0235C625C63542254401E491C8142BF
:100C6000F7DBAB46A81B401E0990002004F80B00E0
:100C70000B98099AC0F80880C0E9002B7AE7112682
:100C80004FF0000857E72DE9F04F88460446D21D83
:100C900022F0070191B0D1E90001CDE90A0103F08A
:100CA00041FE02460B98C00F01D02D2007E02068BE
:100CB000810701D52B2002E0202101EAC000032A90
:100CC000099001D0072A05DB03464146204600F083
:100CD00011FB0BE12078800601D5E06900E00620D9
:100CE000B8F1650F814606D0B8F1660F18D0B8F19B
:100CF000670F70D131E00020B9F1110F009001DBD6
:100D0000112301E009F101030AAA01A90CA8FFF7C8
:100D1000E2FEDDE90C70002609F10105834647E09B
:100D200001204B4600904FF000470AAA01A90CA8E9
:100D3000FFF7D1FEDDE90DB00C995D46002610B934
:100D400009F101000D18B9EB050003D4C0F1FF361D
:100D500009F10105A5EB09002BE0B9F1010F01DA5A
:100D60004FF001090020B9F1110F0090484601DD54
:100D7000112300E003460AAA01A90CA8FFF7ABFE65
:100D8000DDE90C704D4600268346207800070AD422
:100D9000AB4500DA5D4601A8012D04DD411911F8CB
:100DA000011C302907D04F4502DA17F1040F04DA8D
:100DB000012082460FE06D1EEEE7002F02DCED1BE6
:100DC0003E4403E0781CA84200DD7D1CB81B00F106
:100DD000010A4FF000472078000703D4AA4501DB41
:100DE0004FF0FF3A0021B7F1004F0DF143088DF8A5
:100DF000431024D002202B23002F01DA7F422D2321
:100E00000A21021EA0F1010000DC5FB197FBF1FC9A
:100E100097FBF1F201FB1C7C17460CF1300C08F833
:100E200001CDEEE7A8F1010003702188090501D585
:100E3000452100E06521A0F1010800F8011C099896
:100E40000FA9A1EB0807FF1D00B10120411901EB1B
:100E5000EA70A1693844081A401EA0612078C006D3
:100E600002D42046FFF7ADFB099828B1D4E901214F
:100E70009047206A401C20622078C00622D5204678
:100E8000FFF79FFB1EE0002E04DBB34502DD01A847
:100E9000805D00E03020D4E901219047206A401CA9
:100EA0002062761CAAF101005FEA000A0AD100F074
:100EB0001DFAC0680168405CD4E901219047206AAE
:100EC000401C2062281EA5F10105DCDC07E0D4E906
:100ED000012118F8010B9047206A401C2062381E3F
:100EE000A7F10107F3DC2046FFF781FB032011B0D7
:100EF00041E600002DE9F04F04460D46D21D22F0D8
:100F0000070089B0D0E900974846394603F00AFD4A
:100F10000246F80F01D02D2307E02068810701D594
:100F20002B2302E0202101EAC0038DF820300BB111
:100F3000012000E00020032A824601D0072A04DBBA
:100F40002946204600F0D6F93FE12078800601D4FA
:100F50000D2500E0E569C7F30A560D2D49DA002199
:100F60004FEA175B08464FF00000002F00F44000E6
:100F700007DA00EB80004FF4400100EBD07001EA8B
:100F800060008115012901DD4FF0FF3100224FEA99
:100F9000850CBCF1180F06D31346ACF118004FF0C6
:100FA0008052C24003E04FF4801323FA0CF30CF19B
:100FB0000C0CBCF1200F04D3ACF1200C09FA0CF09E
:100FC00001E007FA0CF000294FF0004801DD18B9E4
:100FD0000FE00ED140450CD319EB02095F4121B956
:100FE000404502D19F4329EA0209BBEB175F00D0BD
:100FF000761C2088000502D57B48784402E07A48B8
:101000007844193808AA302302F80A30037C0AF120
:101010000101002E0AF1020A53546A4602DC4FF025
:10102000300101E04FF031014FF001088DF8001060
:1010300002D0A6F2FF3603E059EA470100D06B4E1A
:10104000002D02DC2178090704D54FF002082E217B
:101050008DF80110C44600210BE0C7F303433F01A4
:10106000C35C491C6D1E02F80830052908F101080F
:1010700001DA002DF1DC00210CE000EB1973491CB2
:101080001B786D1E082902F808304FEA091908F18B
:10109000010801DA002DF0DC21688B0602D516E08C
:1010A000A8F10108E04505DD02EB080313F8013C57
:1010B000302BF5D0B8F1000F09DD02EB080313F86F
:1010C000013C2E2B03D1090701D4A8F10108002D02
:1010D00005DD3E2102F808106D1E08F10108407C74
:1010E000002E02F8080008F1010804DA2D207642EB
:1010F00002F8080002E02B2002F808000A214FF451
:101100007A70864208F101080BDB96FBF0F330336E
:1011100002F8083096FBF0F308F1010800FB1366B3
:1011200001E0642E0CDB642096FBF0F3303302F810
:10113000083096FBF0F308F1010800FB136601E0AC
:101140000A2E06DB96FBF1F0303002F8080008F1B9
:10115000010896FBF1F001FB1060303002F8080046
:10116000A16908F1010808EB050202EB0A00081A60
:10117000A0612078C00602D42046FFF722FA216A37
:1011800008AE01EB0A00206204E0D4E9012116F860
:10119000010B9047BAF1010AF7D22078C00602D5B8
:1011A0002046FFF70EFA6E4609E016F8010B3E28BE
:1011B0000FD0D4E901219047206A401C2062B8F189
:1011C0000108F2D22046FFF712FA09B00320BDE869
:1011D000F08F206A2844206203E0D4E90121302006
:1011E00090476D1EEBD3F8E70D55000002FCFFFFA2
:1011F00010B5436913B1AFF3008001E0FFF71AFAAD
:10120000012010BD127800F124010A7000224A70FA
:101210000122EDE711684FF0FF32E9E710B54369AD
:1012200013B1AFF3008001E0FFF7CAFA012010BD4F
:10123000128800F1240182840022C2840122EDE799
:1012400011684FF0FF32E9E7007B00F08000704743
:1012500070B516460C46054600F040F8036893F852
:101260000101012806D0FF2C0FD8185D68B10120BC
:101270002C7070BDD3F807013246214603F20713E4
:1012800003442846BDE8704018474FF0FF3070BD5A
:10129000754600F0EBF8AE4605006946534620F06F
:1012A0000700854618B020B5FFF714F8BDE82040C8
:1012B0004FF000064FF000074FF000084FF0000B12
:1012C00021F00701AC46ACE8C009ACE8C009ACE8C5
:1012D000C009ACE8C0098D467047000010B500F0A9
:1012E00005F8001D10BD00BF493C000000487047D4
:1012F000440D00202DE9F0411F46044603260168F5
:10130000072A01F4006004DB08B116A505E016A564
:1013100003E008B115A500E015A521F0100020603C
:10132000A069C01EA0610FB1401EA0612046FFF75A
:1013300048F94FB1D4E9012138469047206A401C52
:101340002062C01C206206E0206AFAE7D4E901218D
:1013500015F8010B9047761EF8D22046FFF747F9A3
:10136000BDE8F0814E414E006E616E00494E460070
:10137000696E66002DE9F047814616468AB0354809
:1013800078440DC88DE80D0032487844801C03ACC9
:101390000DC884E80D0041F69B300844372190FBCE
:1013A000F1F290FBF1F5A5F1800501FB12041B3C65
:1013B00002D56442012000E00020DFF898A08046BA
:1013C0000027FA44AAF1BE0A0EE0E0070AD032462E
:1013D000684607EB470101230AEB810100F01BFB84
:1013E0008DE8070064107F1C002CEED1194F7F445C
:1013F000AE3F19E0E80715D007EB04100DF1180A0D
:1014000090E80E008AE80E00C068F04201D19819F9
:1014100008903246012306A903A800F0FCFA03ABAA
:1014200083E807006D10641C002DE3D14FF0010329
:1014300032466946B8F1000F03A802D000F0D6FA90
:1014400001E000F0E8FAC9E90001C9F808200AB093
:10145000BDE8F0871852000010B50446AFF30080D5
:101460002046BDE81040FEF720BF0000004870474E
:10147000240D00204FF0013C50F8042B51F8043BA0
:101480009A4221D1A2EB0C03934313EACC1317D158
:1014900050F8042B51F8043B9A4215D1A2EB0C03EF
:1014A000934313EACC130BD150F8042B51F8043BAF
:1014B0009A4209D1A2EB0C03934313EACC13DBD07D
:1014C0004FF00000704700BFD01A01BAB1FA81F1A5
:1014D00001F0180122FA01F0CB40C1F12001DBB28A
:1014E000C0B2C01A2CFA01F3D11A914311EAC31108
:1014F000E6D170475FEA400C08BF91F0000F4FEA59
:101500008C234FEAC12243EA51514FEA1C5018BFC5
:1015100000F5F0404FEA300018BF41F000415FEAAB
:101520006C5C00F02980BCF1FF3F08BF40F08040B8
:101530007047130C06BF12044FF0100C4FF0000C54
:10154000130E04BF12020CF1080C130F04BF12019A
:101550000CF1040C930F04BF92000CF1020CD30F9A
:1015600004BF52000CF1010C11464FF00002A0F133
:101570001F00A0EB0C00704711F0004F08BF704730
:1015800031F000413FF4D5AF0B0C06BF09044FF01A
:10159000100C4FF0000C0B0E04BF09020CF1080CEC
:1015A0000B0F04BF09010CF1040C8B0F04BF890061
:1015B0000CF1020CCB0F04BF49000CF1010CCCF173
:1015C0002003A0EB0C0022FA03F302FA0CF241EA2A
:1015D000030100F10100704720F07F4C80EA030016
:1015E00023F07F47ACEB070303F57C5300F000408A
:1015F00003F1FF032DE980494FEA154B09B44FEA87
:10160000144325EA0B4E24EA03480FF2042606EBA6
:10161000132749083E785FEA320203FB0667C7F5E5
:10162000000707FB06F64FEA54374FEAD64606F1A5
:10163000020607FB066CCCF1005C4FEA1C472CEA63
:10164000074C07FB06F40CFB06F504EB15464FEAC6
:10165000961634BF00204FF000404FEAD13706FB0A
:1016600007FC4FEA1C4C0CFB0BF7D21B03FB0CF7DF
:1016700061EB07010CFB0EF7B0EB074072EB174272
:101680000CFB08F734BFA2EB0742B2EB074261EB59
:1016900017414FEA0C444FEA910706FB07FC4FEA5B
:1016A0001C4C0CFB0BF7B0EBC74072EB573203FB43
:1016B0000CF734BFA2EBC742B2EBC74261EB573124
:1016C0000CFB0EF7B0EBC70072EB57720CFB08F780
:1016D00034BFA2EBC702B2EBC70261EB5771039FA5
:1016E0004FEA816141EA921104EBCC044FEAD13711
:1016F0004FEA826206FB07FC42EA90124FEA8060E2
:101700004FEA1C4C0CFB0BF7D21B03FB0CF761EBF5
:1017100007010CFB0EF7B0EB074072EB17420CFB16
:1017200008F734BFA2EB0742B2EB074261EB174167
:101730004FEA8C554FEA910704EB9C2406FB07FC0B
:101740004FEA1C4C0CFB0BF7B0EBC74072EB573267
:1017500003FB0CF734BFA2EBC742B2EBC74261EB0D
:1017600057310CFB0EF7B0EBC70072EB57720CFB56
:1017700008F734BFA2EBC702B2EBC70261EB5771A7
:1017800015EB4C254FEA816141EA92114FEA8262E2
:101790004FEAD13742EA901206FB07FC44F10004FD
:1017A0004FEA80604FEA1C4C0CFB0BF7D21B03FB8B
:1017B0000CF761EB07010CFB0EF7B0EB074072EB87
:1017C00017420CFB08F734BFA2EB0742B2EB07420B
:1017D00061EB174115EB1C154FEA813141EA92414B
:1017E0004FEA823242EA90424FEA80304FEA0C766A
:1017F00044F1000448EA03434EEA0B484FF0000E60
:10180000B2EB080C71EB030724BF624639464EEB7E
:101810000E0E4FF0000B0018524149414BEB0B0BE1
:10182000B2EB080C71EB03077BF1000B24BF62469F
:1018300039464EEB0E0E4FF0000B00185241494155
:101840004BEB0B0BB2EB080C71EB03077BF1000BBE
:1018500024BF624639464EEB0E0E51EA020718BF0E
:1018600046F0010616EB0E7655F1000254F1000128
:1018700003D5BDE88901BDE80088BDE88901BDE860
:101880000048B619524141EB0101A3F10103704731
:1018900080807F7E7D7C7B7A7978777676757473AD
:1018A000727171706F6E6E6D6C6C6B6A6A6968686C
:1018B000676666656464636362616160605F5F5E02
:1018C0005E5D5D5C5C5B5B5A5A5959585857575678
:1018D00056555555545453535252525151505050DD
:1018E0004F4F4F4E4E4D4D4D4C4C4C4B4B4B4A4A2F
:1018F0004A49494948484847474747464646454573
:1019000045444444444343434342424242414141AB
:10191000002B9C4630D477002BD01CB54FEA3707FC
:1019200003B44FF010004FF01001BAF1000F06D0D1
:10193000BCF1000FDCBF40F0080040F008014FF0A0
:1019400000000FBCBDE810400BF1010BBBF1010F13
:1019500008BF5FEA170722BF12F1010211F101016E
:101960004FF0004143F1000300F0004043EA000063
:101970007047F9D35708D0E746EA064613F1400FFF
:101980004FEA16461FDD13F1200FDFBF16430A464C
:10199000002120335B42BED0C3F1200746EA064651
:1019A00002FA07F74FEA164646EA0706C3F1200790
:1019B00022FA03F201FA07F721FA03F14FF00003CC
:1019C00042EA0702A7E746EA020646EA06464FEA67
:1019D000164646EA0106BCBF46EA0646360C4FF0FC
:1019E00000034FF000024FF0000194E72DE9804C16
:1019F0009A46934670B491E8380007C831EA400C23
:101A000048BF34EA430C03D5FFF7E6FDFFF780FF3C
:101A1000F0BCBDE8008C2DE9804C9A46934670B42A
:101A200091E8380007C810F0804F08BF13F0804FCE
:101A300003D100F005F8FFF76BFFF0BCBDE8008CA8
:101A400020F07F4780EA030023F07F4C07EB0C0374
:101A5000A3F57C5300F00040A3F1FE0392F0000FC9
:101A600000F0B38095F0000F00F077802DE9014978
:101A70004FEA11404FEA144621EA004800FB06FCF9
:101A800024EA064708FB06F607FB08F800FB07F701
:101A900018EB06484CEB164C4FEA124B18EB074874
:101AA0004FEA15464CEB174022EA0B4E0BFB06FCA7
:101AB00025EA06470EFB06F607FB0EFE0BFB07F7B3
:101AC0001EEB064E4CEB164C4FF000061EEB074E7D
:101AD0004CEB174B18EB0B0840F1000018EB0E0B0A
:101AE00058EB000840F100008F1A4FF000013CBF96
:101AF000C943661B14BFB5EB040C00213CBFC943AE
:101B0000F61B4FEA17444EEA8E0E27EA04454FEAC9
:101B10001C4704FB07622CEA074C05FB07F70CFB8C
:101B200005F604FB0CFC16EB074642EB174216EBDE
:101B30000C4642EB1C421BEB060658EB02024141ED
:101B400046EA9E0601D5BDE80189B619524141EB2E
:101B50000101A3F10103BDE801894FEA14454FEAF1
:101B6000114724EA054621EA074C05FB07F406FB6A
:101B700007F70CFB06F105FB0CFC11EB074144EBEE
:101B800017444FEA124711EB0C4144EB1C4422EA84
:101B9000074C05FB07F206FB07F70CFB06F605FBF7
:101BA0000CFC16EB074642EB174216EB0C4642EBD9
:101BB0001C456A1854F1000148BF7047B6195241DC
:101BC00041EB0101A3F10103704795F0000F37D0FD
:101BD0004FEA11424FEA144721EA024624EA074C31
:101BE00002FB07F106FB07F70CFB06F402FB0CFCFB
:101BF00014EB074441EB17414FEA154714EB0C4433
:101C000041EB1C4125EA074C02FB07F506FB07F7F1
:101C10000CFB06F602FB0CFC16EB074645EB1745E2
:101C200016EB0C4645EB1C42121951F1000148BF5E
:101C30007047B619524141EB0101A3F1010370470E
:101C40004FEA14454FEA114724EA054621EA074CBA
:101C500005FB07F106FB07F70CFB06F24FF0000649
:101C600005FB0CFC12EB074241EB174112EB0C4257
:101C700051EB1C4148BF7047921841EB0101A3F1A1
:101C8000010370470029816802D041F0010101E0A1
:101C900021F00101816070470D4910B5884202D1E1
:101CA000012144150AE00B49884202D101210415A3
:101CB00004E0094988420AD10121CC03204601F001
:101CC0001FFA2046BDE81040002101F019BA10BDEE
:101CD0000024014000280140003C01400146002052
:101CE0008968490700D501207047C06C80B27047F1
:101CF0000246002012680A4200D0012070470146C7
:101D000000208968090700D50120704710B5426896
:101D10000E4B0C791A400B6842EA042213434360CD
:101D200083680B4A1340D1E9024222434C7943EACB
:101D300044031A438260C26A097C22F47002491E7D
:101D4000C9B242EA0151C16210BD0000FFFEF0FFBE
:101D5000FDF7F1FF70B5072409290AD9C568A1F17B
:101D60000A0606EB4606B440A543B3401D43C560D2
:101D700007E0056901EB4106B440A543B3401D43AC
:101D800005611F23072A09D2446B521E02EB82020F
:101D900093409C4391400C43446370BD0D2A09D28B
:101DA000046BD21F02EB820293409C4391400C4390
:101DB000046370BDC46A0D3A02EB820293409C43F7
:101DC00091400C43C46270BD816841F0080181609C
:101DD00070470029816802D041F4A00101E021F49C
:101DE000A00181607047816841F004018160704703
:101DF00030B587B001214FF4017001F075F94FF44F
:101E0000004001F05BF90720ADF8140000248DF8C4
:101E1000174005A9164800F08BFB164D2846FFF722
:101E20003BFF4FF46020CDE9020401208DF804400F
:101E30008DF8100000948DF8054069462846FFF79C
:101E400065FF01212846FFF71DFF2846FFF7BCFF6D
:101E50002C462046FFF753FF0028FAD12046FFF713
:101E6000C2FF2046FFF73AFF0028FAD107B030BD85
:101E7000000801400024014038B50121102001F084
:101E800033F94FF40054ADF8004010208DF80300F2
:101E90000120064D8DF802006946284600F048FBF7
:101EA0002146284600F0C9FB38BD00000010014063
:101EB000FEE7C1B2000A40EA012070472DE9F84F61
:101EC0000020ADF80000DFF834A14BF6BF7648F2F1
:101ED00080074A4D4A4C40F68F7848F60F7BDFF872
:101EE00024910AF1440A31E00888474A10F00F00B3
:101EF000107034D0454901EB8001D1F8002CADF8C9
:101F00000020BDF8002012040BD5D1F8002C02EA05
:101F10000802C1F8002C3E4901EB800050F8040C87
:101F20008047BDF80000000610D5374837490078D3
:101F300001EB8001D1F8002C02EA0B02C1F8002C61
:101F4000344901EB800050F8040C8047DAF80000B7
:101F50004946A9F800000004C6D4BDE8F88F2868F7
:101F60002080208800F030006080208800F44050FD
:101F700020802868304080F4005080F020003843F2
:101F800028600888C006286815D400EA0B0028607D
:101F900000F0FEFC26E02188890401D580F4005081
:101FA0006188C90626D46188890601D580F02000A1
:101FB00038432860D1E7ADF80000BDF80000000507
:101FC00006D5286800EA0800286001F073FD09E0E2
:101FD000BDF800000004B9D5286800EA08002860B0
:101FE00000F0FEFF286821883040C904D3D580F472
:101FF0008050D0E780F01000D5E70000005C004082
:102000005E000020860000204C00002000500040B0
:10201000AC00002090000020810008480844D0F85F
:10202000001C490409D5D0F8001C48F68F721140F5
:102030004CF280021143C0F8001C70470050004071
:10204000810008480844D0F8001C490609D5D0F89A
:10205000001C48F68F72114048F2C0021143C0F8CC
:10206000001C704700500040810006480144D1F830
:10207000000C48F68F62104048F280021043C1F80D
:10208000000C7047005000402DE9F047DFF89480C5
:10209000254F4FF03009D8F8001001F11005088ADB
:1020A0000E7A08B9042E04D0AC88A04215D80426B4
:1020B00014E01E480178012903D00726102038803B
:1020C0002BE01B4A002112681A4B120403EBD23298
:1020D0005160A7F8009001701FE00226844200D9E9
:1020E0000446A968204688478246002000F0CAFAC4
:1020F00001462246504602F083FA2146002001F0B4
:1021000035FC2888001B2880688820446880A7F850
:10211000009009494FF440500880D8F8000006723A
:10212000BDE8F0875000002060000020480000203B
:10213000505C0040006000405E0000202DE9F04748
:10214000224EDFF88C803027356835F8100FA968EB
:10215000A9B100B3AC88844200D904462046884720
:1021600081462888001B28806888204468800020D9
:1021700000F068FA01462246484600F055FF2888DC
:1021800048B114494FF4405008800021084601F03E
:10219000EDFBA8F800702888A988884201D30320A5
:1021A00001E020B1052031680872BDE8F087316890
:1021B00006200872084900200968084A090402EB51
:1021C000D1314860A8F80070EFE70000500000200F
:1021D000600000205E000020505C00400060004075
:1021E000F8B55D4C5D4D09262068002729684278C6
:1021F000062A05D0AAB1082A4DD00A2A50D06BE091
:102200000278520668D18078012804D0022804D0D0
:10221000032804D060E0C96956E0096A54E0496ABD
:1022200052E04288B2BBC288022A55D102798ABBE9
:102230000278530601D1838833B102F07F02012A6C
:1022400004D0022A0CD047E045493DE08A69407934
:1022500000219047F0B92068807A0028F4D13BE053
:10226000417901F00F0001F070020B063D4901EBCE
:102270008001D1F8001C03D5C1F30111090102E06E
:10228000C1F301310903384B1B78834224D90AB9C1
:102290000029D9D120E0007840061DD1334913E050
:1022A000027802F07F02012A16D1827AA2B1428816
:1022B00092B9027982B9C288012A0DD18A6940791E
:1022C0000021904740B92A4931B120684782816195
:1022D00000208847002006E02968206809694078C6
:1022E0008847032813D021680A8AA2F57F43FF3B61
:1022F0000BD002280ED06AB10878000626D5C8880F
:10230000009082420AD9088218E00E72F8BD206857
:102310000672F8BD4FF008000872F8BD0ED22868AA
:10232000144B90F82C00824201D21F7006E0B2FBE1
:10233000F0F400FB142008B901201870286890F808
:102340002C008882BDE8F840FFF79EBE032008728B
:10235000094900030880F8BD500000205400002007
:10236000853C00080050004034010020193C000862
:102370005D3C0008480000205E000020704700001F
:102380001C4810B5B0F80214B0F80024914230D0C7
:10239000B0F80214B0F80024914205D2B0F800144D
:1023A000B0F80224891A03E0B0F80214C1F5806184
:1023B0008CB2402C00D94024B0F80214B0F80224AA
:1023C0002244A0F80224B0F80224B2F5806F02D3B0
:1023D0000022A0F8022408442246C02102F010F98D
:1023E0002146012001F0C2FABDE81040012001F0B1
:1023F000E3BA10BDE802002010B50649032002F040
:10240000ABF8C1B2034802F0B9F8BDE810400320B0
:1024100001F08ABA7C080020012000F009B80420ED
:1024200000F006B8082000F003B81020AFF30080D9
:1024300001490860704700001404014030B51A4992
:102440008379026853B30B6893430B600A1D1368CA
:102450000468A343136002790A44136804682343A1
:102460001360114A083213680468A3431360131DF4
:102470001C680568AC431C604479102C05D02144CD
:102480000A68006802430A6030BD1168046821438D
:102490001160196800680143196030BD0079084473
:1024A00001689143016030BD0004014010B503A0F4
:1024B000FDF736FF08490320086010BD75736220E0
:1024C000656E746572206C6F7720706F776572200F
:1024D0006D6F64650D0A00005C01002007494A79B0
:1024E0008879824201D100207047885C521CD2B2A8
:1024F0004A71052AF8D300224A71704774010020FE
:1025000005498A7988548879401CC0B288710528A9
:1025100001D3002088717047740100200348002116
:1025200001600171417181717047000074010020E8
:10253000F0B5CA78002502F00F03D20601D58A78DB
:1025400013430A784FF00F0E12F0FF0F4FF0010205
:102550001CD004680F8802FA05F63740B74211D143
:102560004FEA850C0EFA0CF724EA070703FA0CF47D
:102570003C43CF78282F02D0482F02D002E046619A
:1025800000E006616D1C082DE4D304600C88FF2C6C
:102590001ED944685FF0000606F1080702FA07F545
:1025A0000F882F40AF420FD14FEA860C0EFA0CF77E
:1025B000BC4303FA0CF73C43CF78282F00D1456188
:1025C000CF78482F00D10561761C082EE4D34460F3
:1025D000F0BD0000F0B5144C002801DAE36900E01A
:1025E0006368420D120185B2C0F301579540C0F3F4
:1025F0000346032F05D0C2020AD50322B2409343FB
:1026000007E023F07062636823F07063636002E0A8
:10261000AB4343F0706201B12A43002801DAE26162
:10262000F0BD6260F0BD00000000014002460020E5
:1026300092680A4200D001207047416170470161F1
:10264000704700000549096889B201EBC0000449E0
:1026500001EB4000008980B270470000505C0040F0
:10266000006000400549096889B201EBC0000449D7
:1026700001EB40008089C0F309007047505C0040C6
:10268000006000400449096889B201EBC0000349B9
:1026900031F8100080B27047505C0040006000408C
:1026A00010B50B4C0146072301222046FFF752FBD1
:1026B00001212046FFF78DFB02212046FFF718FB82
:1026C0000028F9D02046BDE81040FFF70EBB0000FF
:1026D000002401402DE9F04100250E4607462C4616
:1026E00005E03846FFF7DCFF641C0544E4B2B44261
:1026F000F7D3B5FBF6F080B2BDE8F0810A4810B51B
:102700000168001D0468001D006808180BD008222D
:10271000064900F06BF9054920460422BDE8104047
:10272000103100F063B910BDE8F7FF1F660000200C
:10273000FEE7000070B50D4C0025C4F8A8510C4808
:10274000016821F470410160016841F44051016069
:10275000C4F8AC51022004F5D47402F0FFFA012051
:102760002060022002F0FAFA256070BD008021424C
:10277000040C014038B50121082000F0B5FC4FF4ED
:102780004064ADF8004010208DF803000320064D92
:102790008DF8020069462846FFF7CAFE2146284602
:1027A000FFF74DFF38BD0000000C014070B50D4C27
:1027B0000025C4F8A8510C48016821F4704101605B
:1027C000016841F4405101600126C4F8AC61022067
:1027D00004F5D47402F0C2FA2660022002F0BEFAB8
:1027E000256070BD00802142040C01402DE9F047B6
:1027F000814617480024016821F470410160016896
:1028000041F400410160134E254627464FF0010870
:10281000C6F8A871022002F0A1FAC6F8A8816006E5
:10282000040ED6F82C0108B1641CE4B2022002F0B8
:1028300095FA6D1CEDB2082DEAD3B9F1000F04D062
:10284000FFF778FF2046BDE8F087FFF7AFFFF9E715
:10285000040C0140008021422DE9F0410646144855
:10286000016821F470410160016841F44051016048
:10287000104C0027C4F8A8713D464FF00108F0093C
:10288000C4F8AC017006060E022002F067FAC4F824
:10289000A881022002F062FAC4F8A871022002F0B6
:1028A0005DFA6D1CEDB2082DE9D3BDE8F0810000A2
:1028B000040C01400080214270B50D48016821F4EC
:1028C00070410160016841F440510160094C0120F0
:1028D000C4F8AC01C4F8A801042004F5D47402F0D3
:1028E0003DFA00256560042002F038FA256070BDCD
:1028F000040C01400080214270B50D48016821F4AC
:1029000070410160016841F440510160094C0020B0
:10291000C4F8AC010125C4F8A851042004F5D4740E
:1029200002F01CFA6560BDE87040042002F016BA9F
:10293000040C01400080214270B513480024016856
:1029400021F470410160016841F4004101600F4DC4
:102950000126C5F8AC61304602F000FAC5F8A8615E
:10296000012002F0FBF907E0641CE4B2FA2C03D961
:10297000FFF7C2FF012070BDD5F82C010028F3D16C
:10298000C5F8A80170BD0000040C01400080214280
:1029900010B5134C2068017A022904D0042902D012
:1029A000062905D015E0FFF76FFB2068007A11E0DB
:1029B0004178052909D10178490606D1C07800F08F
:1029C00047FF08480068006A804707480068806839
:1029D0008047082021680872BDE8104000F036BB2F
:1029E000500000205800002054000020F0B50023C3
:1029F0000A24302537261F4611E000BFB4EB107FB4
:102A000002D905EB107C01E006EB107C01F813C045
:102A100001EB430C00015B1C8CF80170DBB29342AC
:102A2000ECD3F0BD38B501210C2000F05DFB4FF474
:102A30004070ADF8000048248DF80340694607480F
:102A4000FFF776FD4FF47040ADF800008DF80340BD
:102A500069460348FFF76CFD38BD000000080140DF
:102A6000000C014070B5174D00244FF4007128464A
:102A7000FFF7DCFD00B960244FF480712846FFF7B2
:102A8000D5FD00B94024104D4FF400512846FFF702
:102A9000CDFD00B920244FF480412846FFF7C6FD44
:102AA00000B950244FF480512846FFF7BFFD00B90C
:102AB00030244FF400412846FFF7B8FD00B9102438
:102AC000204670BD00080140000C014038B50121CE
:102AD000092000F009FB01210A48FFF77BFD0820CF
:102AE000ADF8000010208DF803000220064C8DF890
:102AF000020069462046FFF71BFD08212046FFF72C
:102B00009CFD38BD00023000000C014010B5064CA1
:102B100006A0FDF705FCA17A0A4809B1052100E0ED
:102B20000121016010BD0000CC0200206C656176BF
:102B300065206C6F7720706F776572206D6F6465AC
:102B40000D0A00005C01002010B5FFF713FE032101
:102B5000022000F05CF80021012000F058F800216C
:102B6000072000F054F8FF21052000F050F8002164
:102B7000062000F04CF88021BDE81040022000F053
:102B800046B8000070B5032000F024F80446042085
:102B900000F020F8014601F00F0101EB04102509B7
:102BA000C0B202F01DFF04460120A84002F000FF61
:102BB000214602F029FF02F0CFFE044A044B02F046
:102BC000D7FCBDE8704002F0C9B900000AD7A37075
:102BD0003D0AA73F10B50446FFF76EFE9420FFF7AD
:102BE0003BFEFFF7A9FE2046FFF736FEFFF7A4FEE7
:102BF000FFF762FE9520FFF72FFEFFF79DFE0020F6
:102C0000FFF7F4FD0446FFF777FE204610BD70B5D0
:102C10000D460446FFF750FE9420FFF71DFEFFF718
:102C20008BFE2046FFF718FEFFF786FE2846FFF7CB
:102C300013FEFFF781FEBDE87040FFF75DBEFEE7C3
:102C40007047704770B50F23C47801780122F4B142
:102C5000144C2468457804F4E064C4F5E064240A64
:102C6000C4F10406E3408478B5401C402C4301F1D4
:102C7000E021230181F80034007800F01F018A4030
:102C80004009800000F1E020C0F8002170BD01F093
:102C90001F0082404809800000F1E020C0F8802138
:102CA00070BD00000CED00E00249084302490860D5
:102CB000704700000000FA050CED00E070B52F4DE4
:102CC0002868017844784A0606D001F07F00012880
:102CD00028D002282BD035E0092C06D0052C07D0AF
:102CE000032C0ED0012C14D02CE001F015F828E0B4
:102CF000C1787F292ED8817861BB818851BB807AC9
:102D000027E0C17801291DD18088D8B901F020F8C9
:102D100017E0C178012915D1818899B9407A8006D8
:102D20000AD40FE00B2C0DD101F068F809E0012C5A
:102D300002D0032C03D005E000F0F0FE01E001F02A
:102D400019F858B10E49204609684969884703288F
:102D500002D018B108200DE009200BE0094A062036
:102D600000211268084B120403EBD2325160074A6B
:102D7000302111802968087270BD000050000020C9
:102D800054000020505C00400060004060000020C3
:102D900070B5002404F1B000C0B2002100F0F2F8D8
:102DA0000021022000F0EEF80021102000F0EAF8E7
:102DB00000250121002000F0E5F86D1CEDB2802D0A
:102DC000F7D3641CE4B2082CE4D370BD70B506469A
:102DD0005FF0070404F1B000C0B2002100F0D2F8A7
:102DE0000021022000F0CEF80021102000F0CAF8E7
:102DF0005FF07F0506EBC5000121005D00F0C2F821
:102E00006D1EF7D5641EE5D570BD000038B50121F3
:102E1000042000F069F97820ADF8000010208DF84A
:102E2000030001204B4C8DF8020069462046FFF755
:102E30007FFB78212046FFF702FC20212046FFF788
:102E4000FEFB642001F070FF20212046FFF7F5FB18
:102E5000C82001F069FF20212046FFF7F0FB002188
:102E6000AE2000F08FF80021022000F08BF8002146
:102E7000102000F087F80021402000F083F80021A6
:102E8000812000F07FF80021CF2000F07BF80021A6
:102E9000A02000F077F80021C82000F073F800218E
:102EA000A62000F06FF80021A82000F06BF80021A8
:102EB0003F2000F067F80021D32000F063F80021E4
:102EC000084600F05FF80021D52000F05BF80021F3
:102ED000802000F057F80021D92000F053F800219D
:102EE000F12000F04FF80021DA2000F04BF800212B
:102EF000122000F047F80021DB2000F043F8002109
:102F0000402000F03FF80021202000F03BF8002195
:102F1000022000F037F800218D2000F033F8002166
:102F2000142000F02FF80021A42000F02BF800213D
:102F3000A62000F027F80021AF2000F023F80021A0
:102F4000AF2000F01FF8FFF723FF0021084600F034
:102F500003F838BD0008014010B50446B031C8B2CE
:102F6000002100F00FF8A41CC4F3031040F010007F
:102F7000002100F007F804F00F00BDE81040002128
:102F8000AFF3008070B5154E054600294FF04001A3
:102F9000304602D0FFF753FB01E0FFF74EFB002461
:102FA00008213046FFF749FB28064FF01001304654
:102FB00002D5FFF744FB01E0FFF73FFB0821304655
:102FC000FFF73DFB6806641C050EE4B2082CE7D34E
:102FD0003046BDE870404021FFF731BB000801409A
:102FE00010B50F4C2068007A022811D004280FD0A9
:102FF000032804D0052802D0072805D008E0FFF7F1
:103000009DF82068007A04E006480068C0688047A0
:10301000082021680872BDE8104000F017B80000D1
:103020005000002054000020064B521C520803EBB5
:10303000410105D031F8043B20F8023B521EF9D182
:103040007047000000600040704700000C4810B559
:1030500090F82C10002000F02FFC0A480068007A3D
:10306000082802D0092809D006E007494FF480500B
:103070000880064910200880002010BD012010BDE6
:10308000E4000020500000205E00002060000020CE
:1030900010B5012001F028F9064801210160002146
:1030A000054A0160031D19604FF4E0511180016071
:1030B000002010BD405C00405C000020034A5168C5
:1030C00021F440410143516070470000001002406C
:1030D000044A0029D16901D0014300E08143D16154
:1030E0007047000000100240044A0029916901D095
:1030F000014300E0814391617047000000100240ED
:10310000044A0029D16801D0014300E08143D16025
:10311000704700000010024030B51F494A6812F0A5
:103120000C031E4A03D0042B01D0082B21D00260CF
:103130004A680F231A4C03EA1212A35C0268DA40B1
:1031400042604B68072505EA1323E35C22FA03F388
:1031500083604B6805EAD323E35CDA40C2604968C8
:10316000032303EA9131231F595CB2FBF1F10161A2
:1031700030BD4A684B6802F470124FF0020413F439
:10318000803F04EB924202D04B689B0301D5054B74
:1031900000E0024B5A43CAE70010024000127A00D6
:1031A0003800002000093D000149C1F8D8007047EF
:1031B000000042422DE9F041214C072800D0207048
:1031C00022781F4D0627052104261E48062A0BD209
:1031D000DFE802F0030C11161E27686810B1217099
:1031E000BDE8F08100F030F82770F9E700F02CF826
:1031F0002670012022E00220607003202070EFE79B
:103200006078401E607060780028E9D12670E7E79A
:10321000026892B242F01002026021700A206070CF
:10322000DEE76178491E617061780029D8D10168B4
:1032300089B221F010010160277000206860CFE79B
:1032400064010020405C004010B5064C206880B24C
:1032500020F004002060FFF759FC4FF43F4020604D
:1032600010BD0000405C004007480068052809D1F7
:1032700006480168491C0160062903D1002101604C
:10328000FFF77EB8704700005C010020800000203E
:103290004FF480610148FDF76EB90000DC080020A2
:1032A0002DE9F84F0E46002715460446B04201D2DC
:1032B0000C460646102D00D91025DFF87891A01B8A
:1032C000C0B2D9F80C10A8428C70C87001D3681E27
:1032D000C87000F089F95849502802D0202811D030
:1032E00028E0D9F80C20107808B10B7823B1507879
:1032F00000B3097819B11DE0401E10701AE0401E9D
:10330000507017E0D9F80C000278C3789A4204D2C2
:1033100091F800C0BCF1000F07D04278EB1A5B1E99
:103320009A4207DA097819B104E0521C027001E0F0
:10333000521C4270D9F80C10F30048780A781044F7
:1033400000F0FF08E000C1E90103514200EBC100B9
:10335000C1B28620009039A30122002000F064FA57
:103360000226062C0AD00096D9F80C007F2241686C
:10337000002008310B4600F083F84CB10096D9F8D4
:103380000C007F22816800204B1E491E00F078F857
:10339000284602F09DF8044626480E46C168486853
:1033A00089688146401A083002F092F82246334676
:1033B00001F0C2FE06460C4608F1010002F088F852
:1033C0003246234602F0D4F882468B4609F10700C4
:1033D00002F07EF852465B4602F0D4F902F034F86F
:1033E000814602F075F83246234601F0E9FD02F00D
:1033F0002BF80346042000907F2249467C2000F0F1
:10340000A5F8012000900B487F22C068D0E9013167
:103410007C20DB1D00F09AF8094807E0B84501D18F
:10342000012100E00021C1557F1CFFB2AF42F5D958
:10343000BDE8F88FF40100206D0100202563000035
:10344000110D002010B5802816D2402914D2072370
:10345000A3EBD10301F00701C1F107040121A14051
:10346000064CDBB204EBC000002AC25CC9B201D03A
:103470000A4300E08A43C25410BD0000DC0800206B
:103480002DE9F84F9846131A1BB2A8EB01040FFA66
:1034900084FC002B01DD012500E000254FF0FF3406
:1034A00004EB45050095BCF1000F01DD012500E0AE
:1034B000002504EB450B002706B20DB23C46002B5D
:1034C00000DA5B420FFA83F9BCF1000F01DACCF1AC
:1034D000000C0FFA8CFAD1451DDD009802EB0008B4
:1034E00015E07F1C3B46294630460A9A01F0BCF99C
:1034F00004EB0A0004B2B9EB440F05DC05EB0B004A
:1035000005B2A4EB090004B20098304406B2B045FD
:10351000E7D1BDE8F88FD84415E07F1C3B4629462B
:1035200030460A9A01F0A0F904EB090004B2BAEBA4
:10353000440F05DC0098304406B2A4EB0A0004B244
:1035400005EB0B0005B2A845E7D1E2E72DE9F8430A
:103550000646089F1D4690460C464FF00009780726
:1035600015D4A7B1324610460097FFF789FF2B46C6
:103570004246194630460097FFF782FF42462B46E7
:10358000214610460097FFF77BFF00970FE0464566
:1035900002D9304646468046AC4201D91C460D460B
:1035A0000FB14FF00109AC4206D1CDF8009023468F
:1035B00042461946304607E0464512D132462B4670
:1035C00021461046CDF80090FFF75AFFBDE8F8837A
:1035D0002346424619463046CDF80090FFF750FF8B
:1035E000641CAC42F4D9F1E7014800787047000050
:1035F0006C010020FFF7EABB10B5FFF707FCBDE840
:103600001040FFF7C5BB000010B50446FFF7F4FFFC
:103610004FF480610348FCF7AEFF2046BDE8104040
:1036200000F024B8DC080020FEF76ABF10B5FEF7F2
:1036300055FF0C4C2070606800F01EF860688068D0
:103640008047207860280CD16078002809D1606814
:103650004068002805D060600348002100680170C0
:10366000417010BD6C01002000020020014948603B
:10367000FEF754BF6C010020F8B505460068FCF762
:103680005BFF001D00EB40004006060EC6F1800007
:10369000C0F347042868009012A301223821A01C1F
:1036A00000F0C2F801273923A21C19460620009712
:1036B000FFF7E6FEA019392379221946801E0097EC
:1036C000FFF7DEFE686800280BD008484078002825
:1036D00007D18520009006A301223821002000F0A8
:1036E000A3F8F8BD5B202573205D00006C0100206D
:1036F000256300002DE9FC5F8B46044600F0FF08BF
:1037000015461E461946684600F05CF89DF8000014
:10371000203D00EA06099DF8020005F0FF0A401E60
:1037200045B21FE09DF80220019900260AFB021015
:103730002F5C380601D54A4603E0B9F1000F15D0D9
:10374000002259462046FFF77DFE7806070E641CCE
:10375000A4EB080008280BD0761CF6B2082EE8D39C
:103760006D1E6DB2002DDDDABDE8FC9F0122E8E799
:1037700044460BF1010BF3E72DE9FC418846054671
:1037800016461F4600241946684600F01BF809E05B
:103790003B4641462846FFF7ADFF9DF80100641CFB
:1037A0000544E4B2325D002AF2D1BDE8FC8100009C
:1037B00010B50348FFF71EFFBDE81040FFF768BDD6
:1037C000DC08002010B5084C0829D4E9003205D0E7
:1037D00001DDF72902D0C0E9003210BDD4E90212A0
:1037E000C0E9001210BD00007C0100200FB408B534
:1037F00003460C480078800711D4102B0FD21846CE
:1038000001F048F801280AD1184601F051F80146A4
:1038100004A8009001220620039B01F097F801B054
:103820005DF814FB6D0100200FB408B506AB0093E2
:10383000059B01F08BF801B05DF814FB70470000A8
:10384000024920F00700086070470000505C00400B
:10385000F0B50E490E4D48F68F770B78002148F2EF
:10386000800C0BE0CEB205EB8604D4F8002C3A4075
:10387000324342EA0C02C4F8002C491C9942F1D3AD
:10388000044940F080000860F0BD000034010020D1
:10389000005000404C5C0040054A21F001011268D4
:1038A00092B202EBC000034A02EB40008160704715
:1038B000505C0040006000400D4A12683E2992B200
:1038C00002EBC0000B4A02EB400209D94809C906C5
:1038D00001D1401E80B24FF4004141EA802004E053
:1038E0004808C90700D0401C8002106070470000E3
:1038F000505C00400C60004082000A480244D2F84C
:10390000000C4BF68F731840CB0401D580F4805027
:10391000890401D580F4005048F280010843C2F8C0
:10392000000C704700500040810007480144D1F866
:10393000000C4BF68F72104080F4405048F2800229
:103940001043C1F8000C704700500040054A21F0B8
:103950000101126892B202EBC000034A42F8101053
:1039600070470000505C004000600040044A12684C
:1039700092B202EBC000034A02EB40004160704784
:10398000505C00400060004082000A480244D2F8C7
:10399000000C48F6BF731840CB0601D580F010002C
:1039A000890601D580F0200048F280010843C2F862
:1039B000000C704700500040810007480144D1F8D6
:1039C000000C48F6BF72104080F0300048F28002D0
:1039D0001043C1F8000C70470050004082000548B9
:1039E0000244D2F8000C48F68F1318400843C2F87E
:1039F000000C7047005000400CB500212648019192
:103A00000091026842F4803202604FF4A0630268C1
:103A100002F400320092019A521C0192009A12B9EB
:103A2000019A9A42F3D10268920333D501210091A1
:103A30001A490A6842F010020A600A6822F003027A
:103A40000A600A6842F002020A6041684160416807
:103A50004160416841F480614160416821F47C111A
:103A60004160416841F4E8114160016841F08071B2
:103A7000016001688901FCD5416821F003014160C2
:103A8000416841F0020141604168C1F381010229AE
:103A9000FAD10CBD00910CBD001002400020024084
:103AA00010B50020FFF780FB0121BDE81040C805DC
:103AB000FFF70EBB70B516480068174D0004C10B28
:103AC00014480144098989B200EB41042868017A4D
:103AD00009290FD02178017061784170A088FEF724
:103AE000E8F9296848802089FEF7E3F92968888089
:103AF000A089C880286801210172C08828B1FEF71A
:103B00006FFBBDE87040FFF7A1BAFFF7D7F8F8E701
:103B1000505C004000600040500000202DE9F04162
:103B200038480068017811F07F0102D0022905D0E1
:103B300066E0417A01F0DF0141724EE041880029E0
:103B40005ED10179F1BB4179304D21F080040A0644
:103B500005EB84022C4BD2F8002C03D5C2F30112E2
:103B6000120102E0C2F3013212031E782346A6427C
:103B700046D93AB3807A28B308064FEA84000ED5B6
:103B80002844D0F8000CC0F30110012821D11846B8
:103B9000FEF756FA20463021FFF7F6FE19E04619E7
:103BA000D6F8000CC0F30130012812D14BF68F7704
:103BB00048F28008A4B11846FEF72EFAD6F8000C99
:103BC000384000E01CE080F4405040EA0800C6F8AD
:103BD000000C0F480068406980470020BDE8F08174
:103BE0000C4890F82C100020FFF766FED5F8000C6A
:103BF000384080F4405040EA0800C5F8000CE8E77F
:103C00000220EBE75000002034010020005000406B
:103C100058000020E400002010B5074C30B10748E0
:103C200000680068804720680A3010BD21680120C4
:103C30000882002010BD0000500000205800002025
:103C4000054A13685A8A10B108681044704788887A
:103C5000801A1882002070475000002010B5074CD1
:103C600030B1074800688068804720680C3010BD7C
:103C7000216801200882002010BD000050000020B3
:103C800058000020204910B5096860B11F48002283
:103C900002800A7853060AD002F07F02012A16D069
:103CA000022A16D001E002200882002010BD497AC5
:103CB0008A06027802D542F0020201E002F0FD021B
:103CC00049060270D1B211D401F0FE0110E00F4894
:103CD00010BD4A79110713060D4A02EB9161D1F824
:103CE000001C07D5C1F3011106E0017841F0010184
:103CF000017003E0C1F301310129F6D005480068E5
:103D000000698047E3E70000500000204A000020DF
:103D100000500040580000200A4810B500680A4AC8
:103D2000C1785278914203D882780AB982880AB160
:103D3000022010BD8172054800684068804700205D
:103D400010BD000050000020340100205800002069
:103D5000064810B50068417A41F0200141720448DC
:103D60000068C0698047002010BD0000500000209E
:103D70005800002070B51D481D4D0368597921F089
:103D8000800005EB80000C06D0F8004C21F080028A
:103D900003D5C4F30114240102E0C4F30134240365
:103DA000144D2D78954210D95A8872B96CB19A7A0F
:103DB0005AB10906D0F8001C48F2800207D548F62F
:103DC000BF73194081F0100106E0022070BD4BF670
:103DD0008F73194081F480511143C0F8001C0648CC
:103DE000006880698047002070BD000050000020FE
:103DF00000500040340100205800002010B50E4C47
:103E00000E4A20681268C17892694079904721680B
:103E10008A7A22B118B9087908B9887808B10220DD
:103E200010BD07480068C068804720684179C172AA
:103E3000C1780173002010BD500000205400002004
:103E40005800002078B41C49002000900A681B4BE1
:103E500094B21B4A03EB8005D5F8005CADB242F882
:103E60002050401C0828F5D344F48060086040F0DE
:103E70000100086020F001040C600F48001D056877
:103E80006D05FCD54FF6FF350560002052F8205037
:103E900003EB8006ADB2C6F8005C401C0828F5D3E1
:103EA00044F008000860086880B240F00400086030
:103EB00078BCFEF7FBBA0000405C004000500040B8
:103EC000BC0800204FF0E0210428086903D020F04E
:103ED00004000861704740F00400FAE770470000F2
:103EE0000F4810B5016841F00101016041680D4AB9
:103EF0001140416001680C4A11400160016821F4E1
:103F000080210160416821F4FE0141604FF41F01EE
:103F10008160FFF771FD05494FF00060086010BD3A
:103F2000001002400000FFF8FFFFF6FE08ED00E081
:103F300010B501218C07204600F04CF801280DD166
:103F40000121204600F039F8FEF78CFDFFF76CFBED
:103F5000FFF76CFBBDE81040FFF72ABC10BD7FB532
:103F60000C46054601210846FFF7B2F8ADF80040BF
:103F70000020ADF80450ADF80600ADF802004FF097
:103F800080446946204600F039F801221146204657
:103F900000F02CF81C208DF80C0002218DF80D107B
:103FA0008DF80E1001208DF80F0003A8FEF74AFED1
:103FB0000121204600F004F87FBDC943018270470B
:103FC0000029018802D041F0010101E021F0010146
:103FD0000180704702460020138A92890B4202EA50
:103FE000010202D0002A00D001207047002A8289F5
:103FF00001D00A4300E08A438281704730B50288CD
:104000001B4B1C4C98420DD0A0420BD0B0F1804FFE
:1040100008D0194DA84205D0184DA84202D0184D1D
:10402000A84203D122F070054A882A43154DA842C0
:1040300006D0154DA84203D022F44075CA882A4301
:1040400002808A8882850A88028598420AD0A04226
:1040500008D00E4A904205D00D4A904202D00D4A37
:10406000904201D1097A01860121818230BD000090
:10407000002C0140003401400004004000080040D2
:10408000000C0040001000400014004000400140BF
:10409000004401400048014070B5154C40F22551E4
:1040A000204600F08BF800280ED0204600F014F9CE
:1040B000C2B2104801880B0406D44C044FF0000330
:1040C00006D50A2A01D0038070BD41F400410DE0FD
:1040D0000D2A09D0C1F30D04074D491C89B22A5598
:1040E0000180C729EFD870BD41F48041018070BDC7
:1040F000003801402C0000200402002000298189A2
:1041000002D041F4005101E021F400518181704757
:1041100010B50D490020A1F80204A1F800040B49D4
:104120000B4C088021790BA0FCF7FAF861790FA0FD
:10413000FCF7F6F8A17914A0FCF7F2F819A02168B1
:10414000FCF7EEF8012010BDE8020020620000201C
:10415000CC0000206C696E65636F64696E672E66C3
:104160006F726D61743A25640D0A00006C696E65AA
:10417000636F64696E672E706172697479747970A7
:10418000653A25640D0A00006C696E65636F6469A9
:104190006E672E64617461747970653A25640D0AE6
:1041A000000000006C696E65636F64696E672E6263
:1041B0006974726174653A25640D0A0030B501F0C6
:1041C0001F0201240025C1F3421304FA02F2012B5D
:1041D0000FD0022B0FD0838A4FEA1121008813429F
:1041E00004FA01F400EA040001D000B101252846D8
:1041F00030BD8389F0E7038AEEE710B5C1F34213BF
:1042000001F01F040121A140012B07D0022B07D090
:104210001430002A026805D00A4304E00C30F8E7A5
:104220001030F6E78A43026010BD000030B5044646
:10423000008A85B00D464CF6FF710840E9880143BD
:104240002182A1894EF6F3100140A8882A891043E3
:104250006A890A431043A081A08A4FF6FF410840B3
:10426000A9890143A1826846FEF756FF1948844296
:1042700001D1039800E00298A189090400EBC00174
:1042800001EB0010296801D5490000E08900B0FB6E
:10429000F1F06422B0FBF2F109010B096FF018058F
:1042A0006B4300EB8300A3891D044FF0320306D556
:1042B00003EBC000B0FBF2F000F0070005E003EBF9
:1042C0000010B0FBF2F000F00F000843208105B0B1
:1042D00030BD0000003801408088C0F308007047FE
:1042E0004FF48020FEF7A4B808B102A000E007A0B8
:1042F000FCF716B87573622070756C6C20757020B1
:10430000656E61626C650D0A0000000075736220C5
:1043100070756C6C2075702064697361626C650DDA
:104320000A00000006480549022201600A72064A96
:104330000449C0E90112086800470000CC020020CF
:1043400050000020E4000020380100203EB54FF46A
:1043500080242046FEF76CF8082001948DF80900AF
:1043600001248DF80A4001A8FEF768F814208DF8A2
:1043700000008DF8014000258DF802508DF80340B3
:104380006846FEF75FFC2A208DF800008DF801508A
:104390006846FEF757FC3EBD2DE9F0414C4E88B013
:1043A000002430684B4D688068884B4F398808403E
:1043B000800507D54FF6FF5030602878401C2870E4
:1043C000FEF752FF688839880840000401D5FDF7E0
:1043D00075FD688839884FF6FF380840400504D5D8
:1043E000C6F800803D4840688047698838880140A9
:1043F000890402D54DF6FF71316069880140C80417
:1044000005D54EF6FF7030600020FEF7D3FE6888B9
:104410003988084000050BD53148007810B1FFF706
:1044200011FD02E00220FEF7C5FE4FF2FF70306082
:10443000688839880840C00546D54FF6FF6030606F
:104440002348001D00684FF00002000438D568685A
:10445000401C68606868032833D91D48001F016844
:1044600009072ED4016889B2A9601E494FEA0D03DD
:1044700001EB8407D7F8007CBFB243F82470641CBA
:10448000082CF5D3AC6844F00104AC60AC68A4B26D
:104490000460AC6824F00104AC60AC68A4B20460B1
:1044A00030684005FCD5C6F80080002053F8204055
:1044B00001EB8006A4B2C6F8004C401C0828F5D3D6
:1044C0006A600720FEF776FE08B0BDE8F0810000C4
:1044D000445C0040840000205C000020E4000020D8
:1044E0006001002000500040FFF756BF10B50446A1
:1044F00001210420FEF7F8FD0C49086824B14FF6AD
:10450000FD721040086010BD80B240F002000860EB
:104510000748016821F47F210160016841F44C31B2
:10452000016004490020C1F8B00110BD405C0040AA
:1045300004080140000021420549002008600549A7
:104540004FF43F4008800249091F0860002070476F
:10455000445C00405C00002070B500F07F060D4612
:104560003046FEF77FF804463046FEF76BF801460A
:1045700022462846FEF758FD204670BDF0B50024BF
:104580002646124A1AE01388055D1F0414D45F04FE
:1045900004D50A2D0FD143F4004314E00D2D10D0A3
:1045A000C3F30D07DFF828C05B1C9BB20CF8075063
:1045B0001380C72B00D91680641CE4B28C42E2D36E
:1045C000F0BD43F480431380F6E700006200002052
:1045D000B40700200849B1F800248854B1F8000459
:1045E000401CA1F80004B1F80004B0F5806F02D1BE
:1045F0000020A1F800047047E8020020FEE7000058
:10460000094B10B5521C520803EB41010AD000BF00
:1046100010F8013B521E10F8014B43EA042321F825
:10462000043BF5D110BD000000600040104A10B5F9
:1046300000211268212802D0202807D016E0107827
:1046400000F07F00212811D10A4908E0107800F01D
:104650007F00212800D10849084B2020187029B17B
:104660000020916150828847002010BD022010BDBB
:1046700050000020994600080D480008C80000209E
:104680000149FFF7DDBA0000DC0000200149FFF717
:10469000D7BA0000D400002008B10448704704498C
:1046A000082009680882002070470000CC00002024
:1046B0005000002005490968C978042901D9002063
:1046C0007047034A02EBC101FFF7BABA500000205D
:1046D0001401002009B9012801D9022070470020E7
:1046E0007047000007490968097801F07F01212916
:1046F00003D1022803D0222801D0022070470020D5
:104700007047000050000020334810B50068334A5D
:1047100000218172D2794272C1720846FFF790F887
:104720004FF400710020FFF759F910210020FFF726
:104730002BF940210020FFF7AFF880210020FFF780
:1047400005F90020FDF790FC254890F82C1000207A
:10475000FFF7B2F80020FFF7E7F800210120FFF78C
:104760003DF9C0210120FFF7F1F820210120FFF7DA
:104770000BF900210120FFF7BFF84FF4C0610220C0
:10478000FFF72CF94FF480710220FFF7DFF80021CA
:104790000220FFF7B1F820210220FFF7F5F80021F1
:1047A0000320FFF71BF94FF488710320FFF774F81B
:1047B00040210320FFF780F84FF440510320FFF71A
:1047C0009BF800210320FFF7DFF80020FFF740F8F7
:1047D00004490120086010BD50000020AA5C0008B8
:1047E000E40000205C0100200348807A002802D009
:1047F0000249052008607047CC0200205C010020BF
:1048000001490420086070475C01002008B1044899
:10481000704704490820096808820020704700009A
:10482000CC0000205000002010B5044C2078202837
:1048300003D1FFF76DFC0020207010BDC8000020E0
:104840007047000010B5FDF759FF054800240068C7
:104850008472FEF71DFCFFF76FFE0248046010BD76
:10486000500000205C01002012F0030206D0012A53
:1048700008D0022A04D0032A04D106E0002202E074
:10488000DA07FBD00122FEF7DDBD03F00302022AA6
:10489000F8D2F3E70549C9684A78801A04D4C97880
:1048A000884201DC0120704700207047F40100209D
:1048B0000349C9688A784978101A0844C0007047CB
:1048C000F401002010B5092200210620FEF7E8FCC3
:1048D0000C4C206801F040F802460B460AA100206B
:1048E000FEF784FF0AA10120FEF780FF606801F057
:1048F00033F802460B46BDE8104008A10220FEF73F
:1049000075BF0000000000204241543A2566560061
:104910006C756D696E616E63653A000025666C7535
:1049200078000000490050EAC12018BF04204A0D59
:1049300018BF40F0010040F2FF72B2EB515F08BFB8
:1049400040F00200012808BF052070472DE9FF4F05
:1049500093B0C6B203200F901D464FF0000B68467F
:104960001599FEF72FFF0020CDF8400015F9010B37
:10497000002878D0252801D0C2B2ADE04FF0000A5F
:1049800015F9010BD1465146302804D02D2804D00A
:104990002E2805D008E0012000E00220824601E038
:1049A0004FF0010B15F9010BA0F13002092A11D8C3
:1049B000BBF1010F07D009EB890200EB4200303850
:1049C00000F0FF09EEE701EB810100EB4100303818
:1049D000C1B2E7E7BBF1010F03D1072900D90721D5
:1049E0000F916C2801D04C2803D115F9010B4AF026
:1049F000040A002837D0A0F161010246192901D824
:104A0000203A52B24F2A71D008DC422A6FD0432A92
:104A10005ED0442A6CD0462A06D16AE0532A10D0D0
:104A2000552AF7D0582A7DD0DDE91413C2B230469A
:104A3000FEF760FE9DF801003044C6B201201090E0
:104A400044E12098002450F8048B209001E0641C7D
:104A5000E4B218F804000028F9D1002703945FEAB3
:104A60008A700DD511E035E1DDE9141320223046BE
:104A7000FEF740FE9DF801007F1C30443FB2C6B2F5
:104A80002046641CE4B24845EED3DDE914134246E7
:104A90003046FEF771FE9DF80110039801FB00609F
:104AA000C6B20398384407B20BE0DDE914132022A4
:104AB0003046FEF71FFE9DF801007F1C30443FB2D8
:104AC000C6B22046641CE4B24845EED31097FDE020
:104AD000209810F8042B2090DDE914133046FEF7DF
:104AE00009FE9DF801003044C6B2EFE078E075E0C1
:104AF00078E020980022C01D20F007001346F0E85F
:104B0000021420908846A3460846594600F0F4FC5B
:104B100005D20F988BF0004B40F008000F904046F4
:104B2000594600E060E000F05FFC07B20F980124F6
:104B300000F00700059005E004EB84014900401EE9
:104B40000CB2C0B20128F7D5384600F0AAFC4246A4
:104B50005B4600F00BFE80468B46204600F0A1FC31
:104B600042465B4600F004FD00F03EFC02B200202D
:104B70004FF030084FF00A0C0BAB05990EE04AB12C
:104B800092FBFCF40CFB142492FBFCF2303412B2C6
:104B90001C5401E003F80080401CC0B2491EC9B299
:104BA000EDD22E211954401C5FFA80F497FBFCF0E3
:104BB0000CFB107097FBFCF130301855641C0FB2E1
:104BC000E4B20FB1102CF1D30F98000703D52D20BC
:104BD0001855641CE4B24FF0000B38E0022304E0E7
:104BE000082302E00A2300E010235FEA4A7101D49F
:104BF000442A05D0209C442A02CC209403D007E00C
:104C0000209A02CA2092002902DA49424AF0080A90
:104C100000240BAFB1FBF3F203FB1212B1FBF3F173
:104C200052B2092A05DD782817D04FF0070C6244EC
:104C300052B230323A55641CE4B209B1102CE9D3B7
:104C40005FEA0A7003D52D203855641CE4B227466C
:104C50005FEACA7004D0302003E04FF0270CE6E78B
:104C60002020804609E0DDE9141342463046FEF775
:104C700041FD9DF801003044C6B25FEA8A7004D459
:104C800038467F1CFFB24845EDD30DF12C0A641E57
:104C9000E4B2DDE914131AF804203046FEF72AFDC9
:104CA0009DF80100002C3044C6B2F0D109E0DDE9E6
:104CB000141342463046FEF71DFD9DF801003044B6
:104CC000C6B238467F1CFFB24845F0D31098401C4E
:104CD0007FF44CAE17B0BDE8F08F30380A2801D20F
:104CE00001207047002070477047000010B56FF03A
:104CF0000400FFF7E7F8094809490068B0FBF1F044
:104D0000C1B2084801EB41020170C2EBC1114FF67C
:104D1000FF7202EAC101418010BD000014000020B2
:104D200000127A00280000200B49498848434FF0C0
:104D3000E021486100228A61086940F001000861B1
:104D40000869C30701D0C003FAD5086920F0010043
:104D500008618A6170470000280000200B4909782B
:104D600048434FF0E021486100228A61086940F021
:104D7000010008610869C30701D0C003FAD50869BA
:104D800020F0010008618A617047000028000020BF
:104D900004490A885206FCD5024AC1B2121D11808C
:104DA00070470000003801404FF4A060FDF77CFF21
:104DB000FFF79CFF4FF4E13000F054F8FDF786FE5A
:104DC000FDF716F8FDF72EFEFDF756F8FEF714FC7A
:104DD0001F48FEF719FCFEF7EBFC40F2CF2142F230
:104DE0000F70FFF7BCF8FDF7AFFE0120FFF77EFB69
:104DF000FEF756FEFFF7AAFAFFF794FA144C154E89
:104E0000154F6FF00B05083C4FF47A7832210020E3
:104E1000FDF760FC00F05CFB2A4600F0F7FE32462E
:104E20003B4600F0A5FB012200F0F0FE00F096F8F2
:104E30002060FDF7A7FE606000F08EFD02460B4685
:104E400006A000F045F84046FFF76EFFDEE70000E1
:104E5000080000209A99999999990B406C75783DB2
:104E600025660A0010B5044686B0012144F204000C
:104E7000FEF73AF925208DF8100003208DF8110077
:104E80008DF8120001208DF8130004A8FDF7DAFE5A
:104E90000020ADF804000094ADF80600ADF808005D
:104EA000ADF80C000C20094CADF80A00694620460C
:104EB000FFF7BCF9012240F225512046FFF79DF98A
:104EC00001212046FFF71AF906B010BD0038014055
:104ED0000FB40B4870B505AA0499FBF70FFA084800
:104EE000FBF72AFB84B20023054D04E0E85CFFF7E2
:104EF00071FB5B1C9BB2A342F8D370BC5DF814FB42
:104F0000EC06002010B500290AD00878002807D048
:104F100005487844FCF7AEFA002801D0002010BD07
:104F20000248784410BD0000F2160000EA160000A6
:104F300010B500290AD00878002807D00548784421
:104F4000FCF798FA002801D0002010BD02487844F0
:104F500010BD0000E2160000DA16000021F0004249
:104F6000A2F16052B2F5801F01F0004328BFD2F1D8
:104F70007F6C0BD95FEA001C43EAC20242EB50701F
:104F800018BF704728BF20F001007047B2F5801F9E
:104F9000BCBF184670474FEA410C1CF5001F02D2F7
:104FA000084600F0F8BD70B500F08CFB00000089E9
:104FB000FFF7F6BF4FF00040A0F5800070470000FB
:104FC00010B591EA030F48BF83F0004300F1E2837C
:104FD000841A71EB030C05D2121943EB0C03001B6E
:104FE00061EB0C01DFF824E14FEA1154A4EB135CF0
:104FF0001EEA430F18BF9EEA445F73D023EA0E03F4
:10500000DCF1200E21EA045143F4801332D322FA5A
:105010000CFE10EB0E0023FA0CFE41EB0E01CCF15E
:10502000200E03FA0EFE10EB0E0051F10001B1F557
:10503000801FCCF1200E32D201EB045112FA0EF295
:10504000BDE8104058BF7047401C38BF5FEA4202BD
:1050500018BF7047002814BF20F0010041F1000183
:105060004FEA410313F5001F38BF7047A1F1C0415B
:1050700000F076BB012A43EB0302ACF1200CDCF11B
:105080001F0E32BF4FF0000E23FA0CF310EB03009B
:1050900041EB0451B4EB115FD0D0A1EB045101F509
:1050A000801149085FEA300001EB04510ED350F142
:1050B000000038BF12FA0EFE08D1BDE81040C9E763
:1050C000401C38BF5FEA4202CAD1C3E7BDE81040C6
:1050D0004FEA410313F5001F38BF7047A1F1C041EB
:1050E00000F03EBB9EEA445F08D011EA5E0FBDE8C7
:1050F000104004BF01F0004100207047BDE810409F
:1051000070B500F0DFFA00BF64FBBE3E0000E0FFB8
:1051100002494FF0000000F047BD00BF0000F87FDB
:10512000491058BFC1F140415B1058BFC3F1404323
:105130008B42EFF3008070472DE9C04130B4DFF8B7
:10514000A0C23CEA111418BF3CEA131400F0EC8032
:1051500081EA03051CEA111444EAD57418BF1CEA5D
:10516000131500F0C780A4EB05044FF0004545EA95
:10517000C12145EAC32341EA505143EA525304F1A5
:105180007F74994204F500344FEAC0204FEAC222EE
:1051900008BF904200F09C804FEA13650FF2401662
:1051A000765D4FEA134506FB05F7C7F1807706FBEE
:1051B00007F74FEAD737A7FB03687642C8F5803870
:1051C000A7FB06CE38BFA8F1010807FB08E64FF0A1
:1051D000000EA6FB028CE6FB03CEDCF1000CCEF148
:1051E000004E38BFAEF1010EA6FB0C584FF0000781
:1051F0004FF00005E6FB0E87A1FB08C6A0FB07CE1B
:1052000016EB0E0645F10005E1FB076515F1E04ED2
:105210007EBFA4F580345FEA46066D4116F1800733
:1052200045F100054FEA17274FEA066647EA05678A
:10523000A6F1DE46B6F1805F4FEA15251FD9384644
:1052400024F0010C05EBC471BCF1FE6F01EB0C11F5
:1052500002D8F0BCBDE8008124425CBF01F5801E8D
:105260009EEAC47F02D4F0BCBDE80081244238D459
:10527000F0BCA1F1C041BDE8004100F071BA4FEAB5
:10528000D22242EA43524FEAD323A7FB02864FEAD7
:10529000D02040EA415007FB03661EEA0E0F4FEA9A
:1052A000D12105FB026658BFA6EB0056B6EB0056AF
:1052B0004FEA520E4EEAC37E18EB0E0E56EB530E1B
:1052C000BDD518EB02085E417F1C55F10005B6E71D
:1052D0004FF480154FF000074FF000064FF0000824
:1052E000ADE7F0BC4FF0000001F1C04101F000411A
:1052F000BDE8008111EA0C1F0CEA131500D00CE088
:1053000013EA0C1F00F025804FF00000F0BC81EA8A
:10531000030101F00041BDE80081F0BCBDE800419F
:1053200081EA030100F01CBAF0BCBDE8004170B591
:1053300000F0C8F9097EFC3E00F007B881EA0301DD
:105340004FF0000001F00041704781EA030100F0D6
:1053500007BAF0BCBDE800414FF00000214970479A
:10536000FFFDFBF9F7F5F4F2F0EEEDEBE9E8E6E42A
:10537000E3E1E0DEDDDBDAD8D7D5D4D3D1D0CFCDB1
:10538000CCCBCAC8C7C6C5C4C2C1C0BFBEBDBCBBEA
:10539000BAB9B8B7B6B5B4B3B2B1B0AFAEADACABE5
:1053A000AAA9A8A8A7A6A5A4A3A3A2A1A09F9F9EBF
:1053B0009D9C9C9B9A999998979796959594939371
:1053C000929191908F8F8E8E8D8C8C8B8B8A898908
:1053D000888887878685858484838382828181808B
:1053E0000000FF070000F87F4FEA41034FEA5353E4
:1053F000A3F58063D3F11E03C8BFD3F1210C0CDDEC
:105400004FF0004242EAC12242EA505232FA03FC13
:105410008CEAE17CACEBE1707047102BC4BF00203C
:10542000704703F5787CBCF1FF3F04D06FF0004279
:1054300082EA2100704770B500F044F94992248057
:1054400000207047F2E700004FEA1153A3F5806394
:10545000D3F11E03A8BFD3F1200C08DB4FF00042AC
:1054600042EAC12252EA505232FA03F0704709422E
:105470000BD4102BC4BF0020704703F5787CBCF11F
:10548000FF3F05D04FF0FF3070474FF000007047EE
:1054900070B500F017F900BF4992248000207047D2
:1054A000F0E710F0004248BF4042B0FA80F310FA33
:1054B00003F10AD0C3F11D0303F580634FEA4150A5
:1054C00002EB035202EBD12170474FF0000070470E
:1054D000B0FA80F310FA03F10AD0C3F11D0303F50B
:1054E00080634FEA41504FEA035202EBD1217047EB
:1054F0004FF000007047000051EA030C17D41CF570
:10550000801F58BFBCF5801F00F10680994218BF6C
:10551000704708BF9042704707D711F5801F58BFEA
:1055200013F5801F19D499427047894270471CF5C2
:10553000801F08D5BCF5801FF7D58B4218BF704778
:1055400008BF824270474FF4001C1CEB410F38BF6C
:105550001CEB430F01D28B42704770B500F0B2F8DC
:10556000922449004FF000514FF08053FFF7D8BD0F
:10557000DFF848C170B51CEA111E1EBF1CEA1315E6
:105580009EEA0C0F95EA0C0F00F06F8081EA03048D
:1055900023EA4C134EEAD47E21EA4C1141F48011E7
:1055A00043F48013AE44A1FB024CA0FB0365AEF1B3
:1055B0007F7E361955EB0C05A1FB034C4CF1000323
:1055C000A0FB021C16EB0C06654153F100030942D7
:1055D00018BF46F0010613F4007F0BD14FEA0331E8
:1055E0004FEA0530340341EA155140EA16506FF096
:1055F00003020AE04FEAC3214FEAC520F40241EA60
:10560000555140EA56506FF0020202EB2E4201EB78
:10561000025585EACE710AD05FEA440C18BF24F027
:10562000004450F1000041F1000120EAD47040F242
:10563000FE7C624500D270BDA84214BF4FF080448A
:105640004FF04044002E08BF0024BEF1806FA8BF79
:10565000A1F1C041BDE8704080F282804FF00000AF
:1056600001F1C04101F0004170479EEA0C0F0CEAC5
:10567000131518BF95EA0C0F06D04FF0000081EA11
:10568000030E0EF0004170BD00F01CF88900013ED1
:1056900000F007B800F009B84FEA430C5FEA5C5C21
:1056A00008D081EA030100F05BB84FEA410C5FEAE1
:1056B0005C5CF6D14FF00000014970470000FF0725
:1056C0000000F87F0EF1020E2EF0030E5EF8046B60
:1056D000364205D4012A43EB030515F5001F12D805
:1056E000012841EB010C1CF5001F0CD80ED14FEA2C
:1056F000D17C15F5001F0CEB4C0C0CF1020C08BF13
:105700004CEBD37C04E04FF0080C01E04FEAD37C73
:105710000CEB4C0526FA05F606F00706B6F1040C6C
:1057200006D20EEB860CBDE870404CF0010C6047D1
:10573000DFE80CF0090B02024FF000414FF00000CF
:10574000A1F5002170BD19461046012851EB010456
:1057500018BFD4F5001484BF002001F0004170BDD3
:105760000808A0F500114FEA3101704791EA030FD4
:1057700010B581F000413FF52BAC83F0004300F001
:1057800009B8000010B591EA030F48BF83F0004349
:105790003FF51EAC841A71EB030C07D212198CF082
:1057A000004C43EB0C03001B61EB0C01DFF8A4E1A0
:1057B0004FEA1154A4EB135C1EEA430F18BF9EEA94
:1057C000445F00F0B08023EA6E03524221EA0451A4
:1057D000C3EB6E0338BF5B1EDCF1200E25D322FA2B
:1057E0000CFE10EB0E0043FA0CFE41EB0E01CCF167
:1057F000200E03FA0EFE10EB0E0051F10001CCF169
:10580000200E29D412FA0EF201EB0451BDE810402B
:1058100058BF7047401C1CBFB2F1004F70470028B2
:105820000CBF491C20F00100704712EB020E43EB45
:10583000030218BF4FF0010E4EEA4202ACF1200CF9
:10584000DCF11E0E54D943FA0CFE10EB0E0051F1A0
:10585000FF31CCF11E0ED5D50EF1010E12FA0EFE5F
:10586000404141EB010101EB445C5FEA5C5C10D913
:1058700010EBDE7001EB045138BFBEF1004FBDE804
:10588000104018BF704700280CBF491C20F00100D1
:10589000704730D24FEAD42C11F5001124F4006483
:1058A0001BD0B1FA81F20B3AA41AA41ED2F1200344
:1058B000914030FA03F31943904001EBCC71002C76
:1058C00001EB0451BDE81040A8BF704701F1C04191
:1058D0004FF0000001F000417047B0FA80F310FA79
:1058E00003F100D110BDE41A173C4805C90AE4E7EA
:1058F00001EB045110BD491001EB0451BDE810400B
:105900004FEA300002E04FF0000170474A0008BF44
:105910000042F8D0B2F5001F28BF704701F00041E7
:105920004FF0000070479EEA445F07D011EA5E0F17
:10593000BDE8104004BF002100207047BDE81040C2
:1059400070B5FFF7BFFE00BF40DFF63E83F00041B9
:10595000104670470000E0FF43004FEAD30C4FEAC7
:105960003C0C43401FBF40070CF1605113F0FE4F49
:1059700070471CF0006F03D100200CF0004170470D
:105980000CF0004343EA507010B540EACC0000F040
:10599000BCF800BF000000924FEA0001FFF7E0BE34
:1059A0004FF000414FF00000A1F5002170470000CA
:1059B00010F0004148BF4042B0FA80F310FA03F201
:1059C000C3F19D030BD051EAC35101EB12205306E2
:1059D00038BF704700F1010008BF20F00100704798
:1059E000B0FA80F310FA03F2C3F19D030AD0D9058F
:1059F00001EB1220530638BF704700F1010008BFC9
:105A000020F00100704700004FF47F0C1CEAD01218
:105A10001EBF1CEAD11392EA0C0F93EA0C0F00F0A0
:105A2000478090EA010F48BF42F480724FF0004C6B
:105A30004CEA00204CEA012102EB0302A0FB011317
:105A4000A2F50002002918BF43F001035B0028BF44
:105A50004FEA330342EB22425FEA132C4CEBC25075
:105A60002EBFBCEB436FB2F57C0F70474FEA036C5F
:105A7000BCF1004F08BF20F00100B2F57C0F38BF29
:105A800070470BD582F0FF0212F5803FC8BF704708
:105A900000F1C040D8BF00F00040704700F5000C96
:105AA0005FEA4C0C48BF7047B0F1C04000F073B8DB
:105AB00090EA010F0CEAD11348BF42F480726245AC
:105AC00038BF634504D280EA010000F0004070470F
:105AD00010B500F01AF800BF8900013E00F007B8C9
