:020000040800F2
:1000000098140020B9020008612C0008512700084C
:100010005F2C0008D11E0008954B0008000000006E
:100020000000000000000000000000007D3C00080F
:100030009D23000800000000693000087544000896
:10004000D3020008D3020008D3020008D30200083C
:10005000D3020008D302000839240008D3020008A4
:100060003F240008452400084B240008D302000860
:10007000D3020008D3020008D3020008D30200080C
:10008000D3020008D3020008D3020008D3020008FC
:10009000814A0008D3020008D3020008D3020008F6
:1000A000D3020008D3020008D3020008D3020008DC
:1000B000C9440008D3020008D3020008D302000894
:1000C000D3020008D3020008D3020008D3020008BC
:1000D000D302000831460008D3020008D30200080A
:1000E000D3020008D302000879480008D3020008B0
:1000F000D3020008D3020008D3020008D30200088C
:10010000D3020008D3020008D3020008D30200087B
:10011000D3020008D3020008D3020008D30200086B
:10012000D3020008D3020008D3020008D30200085B
:1001300000F002F800F0B0F80AA090E8000C824449
:100140008344AAF10107DA4501D100F0A5F8AFF226
:10015000090EBAE80F0013F0010F18BFFB1A43F0A5
:1001600001031847B0820000D08200000A444FF01B
:10017000000C10F8013B13F0070408BF10F8014B06
:100180001D1108BF10F8015B641E05D010F8016B4B
:10019000641E01F8016BF9D113F0080F1EBF10F8AF
:1001A000014BAD1C0C1B09D16D1E58BF01F801CBD2
:1001B000FAD505E014F8016B01F8016B6D1EF9D555
:1001C0009142D6D37047000000230024002500266A
:1001D000103A28BF78C1FBD8520728BF30C148BFAA
:1001E0000B6070476E2900F0B282702900F007841E
:1001F000662907F08A83652907F08783672907F056
:100200008483612907F0838303681B0A28BF41F0B8
:100210008001692900F09080642900F08D807529A3
:1002200000F08A806F2900F09483782900F0D3834E
:10023000E92900F02F83E42900F02C83F52900F050
:100240002983EF2900F09183F82900F0D283036815
:10025000DB0928BF41F08001632900F0E38773299F
:1002600000F0E887E32900F0F387F32900F0F8872E
:10027000002070471FB501F04DF804000020002158
:1002800006F09AF9401C60600020002106F07EF91B
:10029000E0601FBD10B510BD01F00EF81146FFF76C
:1002A000E9FF05F017FB01F0EBF803B4FFF7F2FFED
:1002B00003BC05F002F900000948804709480047DF
:1002C000FEE7FEE7FEE7FEE7FEE7FEE7FEE7FEE706
:1002D000FEE7FEE704480549054A064B7047000063
:1002E0007944000831010008980E0020981400207D
:1002F0009810002098100020704700001CB50C4694
:10030000064B7B4469460090204600F03AFA0446CA
:100310000020694600F048FA20461CBDA3040000F6
:100320000FB4044910B503AA029800F043FA10BCB8
:100330005DF814FB400100202DE9F0410646002441
:1003400010687529314616A510D000F06CF9002808
:1003500002DA404213A507E031688A0701D512A5E9
:1003600002E0490704D511A5012401E000F064F979
:1003700000210A2206F1240709E0B0FBF2FCB0FBE1
:10038000F2F302FB1C00303078541846491C002858
:10039000F3D123462A463046BDE8F04100F07EB94D
:1003A000000000002D0000002B00000020000000D5
:1003B0002DE9F05F894604464FF0000ADFF874B17A
:1003C000FB44C0F820A02046E1688847002874D08C
:1003D000252806D0D4E901219047206A401C2062DC
:1003E000F1E700265F462046E16888472028054659
:1003F00007DB312D05D2781910F8200C08B106431F
:10040000F1E7B00701D526F00406C4F81CA00027C8
:10041000C4F818A02A2D09D0284605F047F838B3AB
:1004200004EB8708303DC8F8185019E059F8041B50
:10043000204604EB87029161E1688847012F054659
:1004400018D1E069002820DA26F020061DE0D8F84F
:10045000180000EB800005EB40003038C8F81800A9
:100460002046E1688847054605F020F80028EED1CF
:10047000012F0AD02E2D08D12046E16888477F1C25
:100480000546022F46F02006C4DBA069002803DAE7
:10049000404246F00106A061F00701D026F01006A8
:1004A0006C2D0BD0682D09D04C2D39D06A2D35D04C
:1004B000742D35D07A2D33D016E038E0E1682F4620
:1004C00020468847B842054609D16C2F26D04FF404
:1004D0008060E168064320468847054604E06C2FAB
:1004E0001AD04FF4807006430DB3A5F141001928CE
:1004F00002D8203546F400664A4629462046266042
:100500004E46FFF76FFE80B101280BD0F61D26F096
:10051000070000F1080956E74020E4E78020D8E70B
:100520000020D6E706F104094DE7284652E7206A85
:10053000BDE8F09F5A7E000010B5431C02E010F8A1
:10054000011B71B18107FAD14FF0013202C88C1A38
:100550008C4314EAC211F9D0C01A0A0603D0C01E97
:1005600010BDC01A10BD0A0401D0801E10BD0902C2
:10057000FCD0401E10BD4FF000020429C0F01280D4
:1005800010F0030C00F04882CCF1040CBCF1020F17
:1005900018BF00F8012BA8BF20F8022BA1EB0C011B
:1005A00000F03ABA5FEAC17C24BF00F8012B00F8E2
:1005B000012B48BF00F8012B704770477047704708
:1005C000704710B500F04EFA006810BD10B5044633
:1005D00000F048FA046010BD70B5044685690068F3
:1005E000C10601D5302600E02026C00707D070BD27
:1005F000D4E9012130469047206A401C20626D1EDC
:10060000F6D570BD70B5044685690078C00707D17E
:1006100070BDD4E9012120209047206A401C20624F
:100620006D1EF6D570BD09684A0501D540B2704708
:10063000C905FCD500B2704709684A0501D5C0B2AA
:100640007047C905FCD580B2704770B50C460546A9
:10065000012A05D02878800600D5EA69002302E047
:10066000012305E05B1C934202D2E05C0028F9D133
:10067000A869E618C01AA861286A184428622846A2
:10068000FFF7AAFF04E0D5E9012114F8010B904718
:10069000B442F8D32846FFF7B5FF70BD2DE9F04707
:1006A0000D4699469246044600F1240801688806E2
:1006B00004D5E06921F01001216000E00120A8428A
:1006C00001DD471B00E00027A1697A1902EB090050
:1006D000081AA0612078C00602D42046FFF77CFFEC
:1006E000002608E0D4E901211AF806009047206AA4
:1006F000401C761C20624E45F4DB2078C0060AD5EB
:100700002046FFF769FF06E0D4E901213020904739
:10071000206A401C2062381EA7F10107F4DC07E0C4
:10072000D4E9012118F805009047206A401C206296
:10073000281EA5F10105F3DC2046FFF763FF2078B2
:10074000000602D50220BDE8F0870120FBE7116812
:100750000268006A530501D508700AE0D30501D587
:10076000088006E0130603D5C217C1E9000200E0C5
:10077000086001207047000001694A1C0261087886
:10078000704700B58FB0CDE90131002105910549D1
:100790007944CDE9031011466846FFF709FE0FB012
:1007A00000BD0000E5FFFFFF0A6802F8010B0A60C8
:1007B00070470000074B70B50D467B44FFF7E1FF23
:1007C0000446284600F050FD10B14FF0FF3070BDD8
:1007D000204670BDA34D00002DE9FF5F15468A46F7
:1007E0000446DFF8AC80F8440027D8E900103E4604
:1007F000CDE9001010E03AF816106A4602A800F0A1
:1008000037FD411C07D02178890603D5E2693918E4
:1008100091420DD80744761C2078800602D5E06905
:10082000B84205DDAE42E6DB3AF816000028E2D118
:10083000A069C01BA0612046FFF7CEFED8E90010DA
:10084000CDE90010002017E03AF818106A4602A817
:1008500000F00EFDB0F1FF3F81460BD000250DF1F9
:10086000080B05E0D4E901211BF8050090476D1C39
:100870004D45F7D308F10100B0428046E4DB206A21
:10088000384420622046FFF7BDFEBDE8FF9F000010
:10089000067B00002DE9F0418046D21D22F00702C0
:1008A0000025D2E90002F52915A614D0011E72F127
:1008B000000106DA0023D0EB030063EB020211A66D
:1008C00008E0D8F800108B0701D50FA602E0490711
:1008D00001D50EA601251146002408F1240704E0E5
:1008E00000F0C4F830323A55641C50EA0102F7D1E6
:1008F0002B46324621464046BDE8F041FFF7CEBECA
:10090000000000002D0000002B000000200000006F
:1009100030B4002100F1240408E002F00705D208F9
:10092000303542EA4372DB086554491C52EA03053C
:10093000F3D10468002310A2250707D5A40600D42C
:1009400021B1C46901230DA2641EC46130BCFFF74C
:10095000A5BE10B5044621461068FFF76DFE02469D
:100960002046BDE810400023D2E7D21D22F0070147
:10097000D1E90023CCE700000000000030000000B7
:10098000F0B40D460188090502D5214C7C4402E0F3
:100990001F4C7C440E34002100F1240608E002F0D4
:1009A0000F071209E75D42EA03721B097754491CDD
:1009B00052EA0307F3D102780023120704D5702D01
:1009C00006D009B1022311342246F0BCFFF766BEFF
:1009D00001231034F8E770B504460D46214610682F
:1009E000FFF72AFE024629462046BDE87040002354
:1009F000C6E7D21D22F00703D3E90023C0E703684E
:100A0000126843F0200303600823C3610023B7E7A3
:100A1000687900004FF0000200B5134694469646F0
:100A2000203922BFA0E80C50A0E80C50B1F1200101
:100A3000BFF4F7AF090728BFA0E80C5048BF0CC0AF
:100A40005DF804EB890028BF40F8042B08BF70470D
:100A500048BF20F8022B11F0804F18BF00F8012B7F
:100A60007047000000487047340E002030B5B0F1E8
:100A70000A024FEA900E71F100034EEA817EB0EB5C
:100A80000E0061EB91014FEA101E4EEA017E10EB61
:100A90000E0041EB11114FEA102E4EEA016E10EBE1
:100AA0000E0041EB11214FEA104E4EEA014E10EBC1
:100AB0000E0041EB1141401841F100014FEAD00016
:100AC00040EA41704FEAD10110EB80054FEA810402
:100AD00044EA907444EB01046D1944EB0404521B86
:100AE000A3414FF0000348BF0A3200D530BD401C7F
:100AF00041F1000130BD70472DE9FF4F0C461E4605
:100B00004FF0FF378BB0D2E90001DDF860800A902A
:100B10008A46C1F30A5505B93D46002108464FF003
:100B20000000BAF1000F00F4400005DA00EB80008D
:100B30004FF4400101EA50004FEA9059B9F1010F1A
:100B400000DDB9460A9850EA4A000ED044F610502B
:100B5000A5F2FF3545432F14B8F1000F1ED07542A2
:100B6000291E1EDDC9F100021CE0B8F1010F4FF093
:100B7000000001D0302103E0F24305E02154401C85
:100B8000B042FBDB30460022002121540B99C1F812
:100B90000880C1E900200FB0BDE8F08FBD1B6D1CBF
:100BA000DEE74A4600DA694206A800F0F7FB06AB2A
:100BB00093E8070003AB83E8070050460A9900F06A
:100BC000A9FC8DE80700A0F500501F38009003989D
:100BD000002D0ADD42F21F014A460844002303A902
:100BE0000390684600F012FF09E0A0F500504A4665
:100BF0001F38002303A90390684600F01CFF8DE80E
:100C000007000004000C03D04FF0FF30410800E063
:100C10001046B8F1000F03D00022009215461EE0E6
:100C2000751E05D4FFF722FF303262556D1EF9D5CF
:100C3000B3460122084302D000227F1C04E0207842
:100C4000302801D100227F1E002A099784D01DE0A0
:100C5000112D07DAFFF70AFF303262556D1C50EA9A
:100C60000102F5D1084302D00098C8B10EE000217E
:100C7000681E05E0235C625C63542254401E491CDC
:100C80008142F7DBAB46A81B401E0990002004F808
:100C90000B000B98099AC0F80880C0E9002B7AE78E
:100CA00011264FF0000857E72DE9F04F884604461B
:100CB000D21D22F0070191B0D1E90001CDE90A016E
:100CC00004F0A2F902460B98C00F01D02D2007E0D6
:100CD0002068810701D52B2002E0202101EAC00015
:100CE000032A099001D0072A05DB03464146204626
:100CF00000F014FB0BE12078800601D5E06900E0EC
:100D00000620B8F1650F814606D0B8F1660F18D0FD
:100D1000B8F1670F70D131E00020B9F1110F0090E8
:100D200001DB112301E009F101030AAA01A90CA8C2
:100D3000FFF7E2FEDDE90C70002609F101058346AC
:100D400047E001204B4600904FF000470AAA01A956
:100D50000CA8FFF7D1FEDDE90DB00C995D46002629
:100D600010B909F101000D18B9EB050003D4C0F169
:100D7000FF3609F10105A5EB09002BE0B9F1010FE0
:100D800001DA4FF001090020B9F1110F0090484637
:100D900001DD112300E003460AAA01A90CA8FFF710
:100DA000ABFEDDE90C704D46002683462078000737
:100DB0000AD4AB4500DA5D4601A8012D04DD4119D6
:100DC00011F8011C302907D04F4502DA17F1040F42
:100DD00004DA012082460FE06D1EEEE7002F02DCF0
:100DE000ED1B3E4403E0781CA84200DD7D1CB81BCF
:100DF00000F1010A4FF000472078000703D4AA450C
:100E000001DB4FF0FF3A0021B7F1004F0DF143082D
:100E10008DF8431024D002202B23002F01DA7F42CB
:100E20002D230A21021EA0F1010000DC5FB197FB17
:100E3000F1FC97FBF1F201FB1C7C17460CF1300C26
:100E400008F801CDEEE7A8F101000370218809053B
:100E500001D5452100E06521A0F1010800F8011C41
:100E600009980FA9A1EB0807FF1D00B10120411946
:100E700001EBEA70A1693844081A401EA06120788D
:100E8000C00602D42046FFF7A7FB099828B1D4E991
:100E900001219047206A401C20622078C00622D59C
:100EA0002046FFF799FB1EE0002E04DBB34502DD70
:100EB00001A8805D00E03020D4E901219047206A3C
:100EC000401C2062761CAAF101005FEA000A0AD1E8
:100ED00000F020FAC0680168405CD4E90121904725
:100EE000206A401C2062281EA5F10105DCDC07E019
:100EF000D4E9012118F8010B9047206A401C2062B8
:100F0000381EA7F10107F3DC2046FFF77BFB032027
:100F100011B041E62DE9F04F04460D46D21D22F0F6
:100F2000070089B0D0E900974846394604F06CF8CC
:100F30000246F80F01D02D2307E02068810701D574
:100F40002B2302E0202101EAC0038DF820300BB1F1
:100F5000012000E00020032A824601D0072A04DB9A
:100F60002946204600F0DAF93FE12078800601D4D6
:100F70000D2500E0E569C7F30A560D2D49DA002179
:100F80004FEA175B08464FF00000002F00F44000C6
:100F900007DA00EB80004FF4400100EBD07001EA6B
:100FA00060008115012901DD4FF0FF3100224FEA79
:100FB000850CBCF1180F06D31346ACF118004FF0A6
:100FC0008052C24003E04FF4801323FA0CF30CF17B
:100FD0000C0CBCF1200F04D3ACF1200C09FA0CF07E
:100FE00001E007FA0CF000294FF0004801DD18B9C4
:100FF0000FE00ED140450CD319EB02095F4121B936
:10100000404502D19F4329EA0209BBEB175F00D09C
:10101000761C2088000502D57B48784402E07A4897
:101020007844193808AA302302F80A30037C0AF100
:101030000101002E0AF1020A53546A4602DC4FF005
:10104000300101E04FF031014FF001088DF8001040
:1010500002D0A6F2FF3603E059EA470100D06B4EFA
:10106000002D02DC2178090704D54FF002082E215B
:101070008DF80110C44600210BE0C7F303433F0184
:10108000C35C491C6D1E02F80830052908F10108EF
:1010900001DA002DF1DC00210CE000EB1973491C92
:1010A0001B786D1E082902F808304FEA091908F16B
:1010B000010801DA002DF0DC21688B0602D516E06C
:1010C000A8F10108E04505DD02EB080313F8013C37
:1010D000302BF5D0B8F1000F09DD02EB080313F84F
:1010E000013C2E2B03D1090701D4A8F10108002DE2
:1010F00005DD3E2102F808106D1E08F10108407C54
:10110000002E02F8080008F1010804DA2D207642CA
:1011100002F8080002E02B2002F808000A214FF430
:101120007A70864208F101080BDB96FBF0F330334E
:1011300002F8083096FBF0F308F1010800FB136693
:1011400001E0642E0CDB642096FBF0F3303302F8F0
:10115000083096FBF0F308F1010800FB136601E08C
:101160000A2E06DB96FBF1F0303002F8080008F199
:10117000010896FBF1F001FB1060303002F8080026
:10118000A16908F1010808EB050202EB0A00081A40
:10119000A0612078C00602D42046FFF71DFA216A1C
:1011A00008AE01EB0A00206204E0D4E9012116F840
:1011B000010B9047BAF1010AF7D22078C00602D598
:1011C0002046FFF709FA6E4609E016F8010B3E28A3
:1011D0000FD0D4E901219047206A401C2062B8F169
:1011E0000108F2D22046FFF70DFA09B00320BDE84E
:1011F000F08F206A2844206203E0D4E901213020E6
:1012000090476D1EEBD3F8E71D73000002FCFFFF53
:1012100010B5436913B1AFF3008001E0FFF715FA91
:10122000012010BD127800F124010A7000224A70DA
:101230000122EDE711684FF0FF32E9E710B543698D
:1012400013B1AFF3008001E0FFF7C6FA012010BD33
:10125000128800F1240182840022C2840122EDE779
:1012600011684FF0FF32E9E7007B00F08000704723
:1012700070B516460C46054600F044F8036893F82E
:101280000101012806D0FF2C0FD8185D68B101209C
:101290002C7070BDD3F807013246214603F20713C4
:1012A00003442846BDE8704018474FF0FF3070BD3A
:1012B00000487047340E00207546FFF7F9FFAE4630
:1012C00005006946534620F00700854618B020B552
:1012D000FFF700F8BDE820404FF000064FF0000790
:1012E0004FF000084FF0000B21F00701AC46ACE8CE
:1012F000C009ACE8C009ACE8C009ACE8C0098D463B
:101300007047000010B500F005F8001D10BD00BFCB
:10131000A952000000487047540E00202DE9F0410A
:101320001F46044603260168072A01F4006004DB17
:1013300008B116A505E016A503E008B115A500E063
:1013400015A521F010002060A069C01EA0610FB19A
:10135000401EA0612046FFF73FF94FB1D4E90121BB
:1013600038469047206A401C2062C01C206206E07C
:10137000206AFAE7D4E9012115F8010B9047761E9F
:10138000F8D22046FFF73EF9BDE8F0814E414E000D
:101390006E616E00494E4600696E66002DE9F047A9
:1013A000814616468AB0354878440DC88DE80D0050
:1013B00032487844801C03AC0DC884E80D0041F627
:1013C0009B300844372190FBF1F290FBF1F5A5F139
:1013D000800501FB12041B3C02D56442012000E0A1
:1013E0000020DFF898A080460027FA44AAF1BE0A40
:1013F0000EE0E0070AD03246684607EB47010123BA
:101400000AEB810100F017FB8DE8070064107F1CD8
:10141000002CEED1194F7F44AE3F19E0E80715D0FC
:1014200007EB04100DF1180A90E80E008AE80E0090
:10143000C068F04201D1981908903246012306A9EC
:1014400003A800F0F8FA03AB83E807006D10641CF2
:10145000002DE3D14FF0010332466946B8F1000F89
:1014600003A802D000F0D2FA01E000F0E4FAC9E9E2
:101470000001C9F808200AB0BDE8F087207000001C
:1014800010B50446AFF300802046BDE81040FEF7DB
:101490000CBF00004FF0013C50F8042B51F8043B06
:1014A0009A4221D1A2EB0C03934313EACC1317D138
:1014B00050F8042B51F8043B9A4215D1A2EB0C03CF
:1014C000934313EACC130BD150F8042B51F8043B8F
:1014D0009A4209D1A2EB0C03934313EACC13DBD05D
:1014E0004FF00000704700BFD01A01BAB1FA81F185
:1014F00001F0180122FA01F0CB40C1F12001DBB26A
:10150000C0B2C01A2CFA01F3D11A914311EAC311E7
:10151000E6D170475FEA400C08BF91F0000F4FEA38
:101520008C234FEAC12243EA51514FEA1C5018BFA5
:1015300000F5F0404FEA300018BF41F000415FEA8B
:101540006C5C00F02980BCF1FF3F08BF40F0804098
:101550007047130C06BF12044FF0100C4FF0000C34
:10156000130E04BF12020CF1080C130F04BF12017A
:101570000CF1040C930F04BF92000CF1020CD30F7A
:1015800004BF52000CF1010C11464FF00002A0F113
:101590001F00A0EB0C00704711F0004F08BF704710
:1015A00031F000413FF4D5AF0B0C06BF09044FF0FA
:1015B000100C4FF0000C0B0E04BF09020CF1080CCC
:1015C0000B0F04BF09010CF1040C8B0F04BF890041
:1015D0000CF1020CCB0F04BF49000CF1010CCCF153
:1015E0002003A0EB0C0022FA03F302FA0CF241EA0A
:1015F000030100F10100704720F07F4C80EA0300F6
:1016000023F07F47ACEB070303F57C5300F0004069
:1016100003F1FF032DE980494FEA154B09B44FEA66
:10162000144325EA0B4E24EA03480FF2042606EB86
:10163000132749083E785FEA320203FB0667C7F5C5
:10164000000707FB06F64FEA54374FEAD64606F185
:10165000020607FB066CCCF1005C4FEA1C472CEA43
:10166000074C07FB06F40CFB06F504EB15464FEAA6
:10167000961634BF00204FF000404FEAD13706FBEA
:1016800007FC4FEA1C4C0CFB0BF7D21B03FB0CF7BF
:1016900061EB07010CFB0EF7B0EB074072EB174252
:1016A0000CFB08F734BFA2EB0742B2EB074261EB39
:1016B00017414FEA0C444FEA910706FB07FC4FEA3B
:1016C0001C4C0CFB0BF7B0EBC74072EB573203FB23
:1016D0000CF734BFA2EBC742B2EBC74261EB573104
:1016E0000CFB0EF7B0EBC70072EB57720CFB08F760
:1016F00034BFA2EBC702B2EBC70261EB5771039F85
:101700004FEA816141EA921104EBCC044FEAD137F0
:101710004FEA826206FB07FC42EA90124FEA8060C1
:101720004FEA1C4C0CFB0BF7D21B03FB0CF761EBD5
:1017300007010CFB0EF7B0EB074072EB17420CFBF6
:1017400008F734BFA2EB0742B2EB074261EB174147
:101750004FEA8C554FEA910704EB9C2406FB07FCEB
:101760004FEA1C4C0CFB0BF7B0EBC74072EB573247
:1017700003FB0CF734BFA2EBC742B2EBC74261EBED
:1017800057310CFB0EF7B0EBC70072EB57720CFB36
:1017900008F734BFA2EBC702B2EBC70261EB577187
:1017A00015EB4C254FEA816141EA92114FEA8262C2
:1017B0004FEAD13742EA901206FB07FC44F10004DD
:1017C0004FEA80604FEA1C4C0CFB0BF7D21B03FB6B
:1017D0000CF761EB07010CFB0EF7B0EB074072EB67
:1017E00017420CFB08F734BFA2EB0742B2EB0742EB
:1017F00061EB174115EB1C154FEA813141EA92412B
:101800004FEA823242EA90424FEA80304FEA0C7649
:1018100044F1000448EA03434EEA0B484FF0000E3F
:10182000B2EB080C71EB030724BF624639464EEB5E
:101830000E0E4FF0000B0018524149414BEB0B0BC1
:10184000B2EB080C71EB03077BF1000B24BF62467F
:1018500039464EEB0E0E4FF0000B00185241494135
:101860004BEB0B0BB2EB080C71EB03077BF1000B9E
:1018700024BF624639464EEB0E0E51EA020718BFEE
:1018800046F0010616EB0E7655F1000254F1000108
:1018900003D5BDE88901BDE80088BDE88901BDE840
:1018A0000048B619524141EB0101A3F10103704711
:1018B00080807F7E7D7C7B7A79787776767574738D
:1018C000727171706F6E6E6D6C6C6B6A6A6968684C
:1018D000676666656464636362616160605F5F5EE2
:1018E0005E5D5D5C5C5B5B5A5A5959585857575658
:1018F00056555555545453535252525151505050BD
:101900004F4F4F4E4E4D4D4D4C4C4C4B4B4B4A4A0E
:101910004A49494948484847474747464646454552
:10192000454444444443434343424242424141418B
:10193000002B9C4630D477002BD01CB54FEA3707DC
:1019400003B44FF010004FF01001BAF1000F06D0B1
:10195000BCF1000FDCBF40F0080040F008014FF080
:1019600000000FBCBDE810400BF1010BBBF1010FF3
:1019700008BF5FEA170722BF12F1010211F101014E
:101980004FF0004143F1000300F0004043EA000043
:101990007047F9D35708D0E746EA064613F1400FDF
:1019A0004FEA16461FDD13F1200FDFBF16430A462C
:1019B000002120335B42BED0C3F1200746EA064631
:1019C00002FA07F74FEA164646EA0706C3F1200770
:1019D00022FA03F201FA07F721FA03F14FF00003AC
:1019E00042EA0702A7E746EA020646EA06464FEA47
:1019F000164646EA0106BCBF46EA0646360C4FF0DC
:101A000000034FF000024FF0000194E72DE9804CF5
:101A10009A46934670B491E8380007C831EA400C02
:101A200048BF34EA430C03D5FFF7E6FDFFF780FF1C
:101A3000F0BCBDE8008C2DE9804C9A46934670B40A
:101A400091E8380007C810F0804F08BF13F0804FAE
:101A500003D100F005F8FFF76BFFF0BCBDE8008C88
:101A600020F07F4780EA030023F07F4C07EB0C0354
:101A7000A3F57C5300F00040A3F1FE0392F0000FA9
:101A800000F0B38095F0000F00F077802DE9014958
:101A90004FEA11404FEA144621EA004800FB06FCD9
:101AA00024EA064708FB06F607FB08F800FB07F7E1
:101AB00018EB06484CEB164C4FEA124B18EB074854
:101AC0004FEA15464CEB174022EA0B4E0BFB06FC87
:101AD00025EA06470EFB06F607FB0EFE0BFB07F793
:101AE0001EEB064E4CEB164C4FF000061EEB074E5D
:101AF0004CEB174B18EB0B0840F1000018EB0E0BEA
:101B000058EB000840F100008F1A4FF000013CBF75
:101B1000C943661B14BFB5EB040C00213CBFC9438D
:101B2000F61B4FEA17444EEA8E0E27EA04454FEAA9
:101B30001C4704FB07622CEA074C05FB07F70CFB6C
:101B400005F604FB0CFC16EB074642EB174216EBBE
:101B50000C4642EB1C421BEB060658EB02024141CD
:101B600046EA9E0601D5BDE80189B619524141EB0E
:101B70000101A3F10103BDE801894FEA14454FEAD1
:101B8000114724EA054621EA074C05FB07F406FB4A
:101B900007F70CFB06F105FB0CFC11EB074144EBCE
:101BA00017444FEA124711EB0C4144EB1C4422EA64
:101BB000074C05FB07F206FB07F70CFB06F605FBD7
:101BC0000CFC16EB074642EB174216EB0C4642EBB9
:101BD0001C456A1854F1000148BF7047B6195241BC
:101BE00041EB0101A3F10103704795F0000F37D0DD
:101BF0004FEA11424FEA144721EA024624EA074C11
:101C000002FB07F106FB07F70CFB06F402FB0CFCDA
:101C100014EB074441EB17414FEA154714EB0C4412
:101C200041EB1C4125EA074C02FB07F506FB07F7D1
:101C30000CFB06F602FB0CFC16EB074645EB1745C2
:101C400016EB0C4645EB1C42121951F1000148BF3E
:101C50007047B619524141EB0101A3F101037047EE
:101C60004FEA14454FEA114724EA054621EA074C9A
:101C700005FB07F106FB07F70CFB06F24FF0000629
:101C800005FB0CFC12EB074241EB174112EB0C4237
:101C900051EB1C4148BF7047921841EB0101A3F181
:101CA000010370470029816802D041F0010101E081
:101CB00021F00101816070470D4910B5884202D1C1
:101CC000012144150AE00B49884202D10121041583
:101CD00004E0094988420AD10121CC03204601F0E1
:101CE0001FFA2046BDE81040002101F019BA10BDCE
:101CF0000024014000280140003C01400146002032
:101D00008968490700D501207047C06C80B27047D0
:101D10000246002012680A4200D0012070470146A6
:101D200000208968090700D50120704710B5426876
:101D30000E4B0C791A400B6842EA042213434360AD
:101D400083680B4A1340D1E9024222434C7943EAAB
:101D500044031A438260C26A097C22F47002491E5D
:101D6000C9B242EA0151C16210BD0000FFFEF0FF9E
:101D7000FDF7F1FF70B5072409290AD9C568A1F15B
:101D80000A0606EB4606B440A543B3401D43C560B2
:101D900007E0056901EB4106B440A543B3401D438C
:101DA00005611F23072A09D2446B521E02EB8202EF
:101DB00093409C4391400C43446370BD0D2A09D26B
:101DC000046BD21F02EB820293409C4391400C4370
:101DD000046370BDC46A0D3A02EB820293409C43D7
:101DE00091400C43C46270BD816841F0080181607C
:101DF00070470029816802D041F4A00101E021F47C
:101E0000A00181607047816841F0040181607047E2
:101E100030B587B001214FF4017001F075F94FF42E
:101E2000004001F05BF90720ADF8140000248DF8A4
:101E3000174005A9164800F08BFB164D2846FFF702
:101E40003BFF4FF46020CDE9020401208DF80440EF
:101E50008DF8100000948DF8054069462846FFF77C
:101E600065FF01212846FFF71DFF2846FFF7BCFF4D
:101E70002C462046FFF753FF0028FAD12046FFF7F3
:101E8000C2FF2046FFF73AFF0028FAD107B030BD65
:101E9000000801400024014038B50121102001F064
:101EA00033F94FF40054ADF8004010208DF80300D2
:101EB0000120064D8DF802006946284600F048FBD7
:101EC0002146284600F0C9FB38BD00000010014043
:101ED000FEE7C1B2000A40EA012070472DE9F84F41
:101EE0000020ADF80000DFF834A14BF6BF7648F2D1
:101EF00080074A4D4A4C40F68F7848F60F7BDFF852
:101F000024910AF1440A31E00888474A10F00F0092
:101F1000107034D0454901EB8001D1F8002CADF8A8
:101F20000020BDF8002012040BD5D1F8002C02EAE5
:101F30000802C1F8002C3E4901EB800050F8040C67
:101F40008047BDF80000000610D5374837490078B3
:101F500001EB8001D1F8002C02EA0B02C1F8002C41
:101F6000344901EB800050F8040C8047DAF8000097
:101F70004946A9F800000004C6D4BDE8F88F2868D7
:101F80002080208800F030006080208800F44050DD
:101F900020802868304080F4005080F020003843D2
:101FA00028600888C006286815D400EA0B0028605D
:101FB00000F0FEFC26E02188890401D580F4005061
:101FC0006188C90626D46188890601D580F0200081
:101FD00038432860D1E7ADF80000BDF800000005E7
:101FE00006D5286800EA0800286001F083FF09E0B0
:101FF000BDF800000004B9D5286800EA0800286090
:1020000000F0FEFF286821883040C904D3D580F451
:102010008050D0E780F01000D5E70000005C004061
:102020006E010020960100205C010020005000405D
:10203000BC010020A0010020810008480844D0F81D
:10204000001C490409D5D0F8001C48F68F721140D5
:102050004CF280021143C0F8001C70470050004051
:10206000810008480844D0F8001C490609D5D0F87A
:10207000001C48F68F72114048F2C0021143C0F8AC
:10208000001C704700500040810006480144D1F810
:10209000000C48F68F62104048F280021043C1F8ED
:1020A000000C7047005000402DE9F047DFF89480A5
:1020B000254F4FF03009D8F8001001F11005088ABB
:1020C0000E7A08B9042E04D0AC88A04215D8042694
:1020D00014E01E480178012903D00726102038801B
:1020E0002BE01B4A002112681A4B120403EBD23278
:1020F0005160A7F8009001701FE00226844200D9C9
:102100000446A968204688478246002000F0CAFAA3
:1021100001462246504602F03FFD2146002001F0D4
:1021200045FE2888001B2880688820446880A7F81E
:10213000009009494FF440500880D8F8000006721A
:10214000BDE8F087600100207001002058010020E8
:10215000505C0040006000406E0100202DE9F04717
:10216000224EDFF88C803027356835F8100FA968CB
:10217000A9B100B3AC88844200D904462046884700
:1021800081462888001B28806888204468800020B9
:1021900000F068FA01462246484600F055FF2888BC
:1021A00048B114494FF4405008800021084601F01E
:1021B000FDFDA8F800702888A988884201D3032073
:1021C00001E020B1052031680872BDE8F087316870
:1021D00006200872084900200968084A090402EB31
:1021E000D1314860A8F80070EFE7000060010020DE
:1021F000700100206E010020505C00400060004033
:10220000F8B55D4C5D4D09262068002729684278A5
:10221000062A05D0AAB1082A4DD00A2A50D06BE070
:102220000278520668D18078012804D0022804D0B0
:10223000032804D060E0C96956E0096A54E0496A9D
:1022400052E04288B2BBC288022A55D102798ABBC9
:102250000278530601D1838833B102F07F02012A4C
:1022600004D0022A0CD047E045493DE08A69407914
:1022700000219047F0B92068807A0028F4D13BE033
:10228000417901F00F0001F070020B063D4901EBAE
:102290008001D1F8001C03D5C1F30111090102E04E
:1022A000C1F301310903384B1B78834224D90AB9A1
:1022B0000029D9D120E0007840061DD1334913E030
:1022C000027802F07F02012A16D1827AA2B14288F6
:1022D00092B9027982B9C288012A0DD18A694079FE
:1022E0000021904740B92A4931B120684782816175
:1022F00000208847002006E02968206809694078A6
:102300008847032813D021680A8AA2F57F43FF3B40
:102310000BD002280ED06AB10878000626D5C888EE
:10232000009082420AD9088218E00E72F8BD206837
:102330000672F8BD4FF008000872F8BD0ED228688A
:10234000144B90F82C00824201D21F7006E0B2FBC1
:10235000F0F400FB142008B901201870286890F8E8
:102360002C008882BDE8F840FFF79EBE032008726B
:10237000094900030880F8BD6001002064010020C5
:102380001D4200080050004044020020B1410008F6
:10239000F5410008580100206E0100207047000040
:1023A0001C4810B5B0F80214B0F80024914230D0A7
:1023B000B0F80214B0F80024914205D2B0F800142D
:1023C000B0F80224891A03E0B0F80214C1F5806164
:1023D0008CB2402C00D94024B0F80214B0F802248A
:1023E0002244A0F80224B0F80224B2F5806F02D390
:1023F0000022A0F8022408442246C02102F0CCFBAF
:102400002146012001F0D2FCBDE81040012001F07E
:10241000F3BC10BDF803002010B50649032002F0FC
:1024200067FBC1B2034802F075FBBDE81040032012
:1024300001F09ABC8C090020012000F009B80420AA
:1024400000F006B8082000F003B81020AFF30080B9
:1024500001490860704700001404014030B51A4972
:102460008379026853B30B6893430B600A1D1368AA
:102470000468A343136002790A4413680468234381
:102480001360114A083213680468A3431360131DD4
:102490001C680568AC431C604479102C05D02144AD
:1024A0000A68006802430A6030BD1168046821436D
:1024B0001160196800680143196030BD0079084453
:1024C00001689143016030BD0004014010B503A0D4
:1024D000FDF726FF08490320086010BD75736220D0
:1024E000656E746572206C6F7720706F77657220EF
:1024F0006D6F64650D0A00006C02002007494A797F
:102500008879824201D100207047885C521CD2B287
:102510004A71052AF8D300224A71704784020020CC
:1025200005498A7988548879401CC0B28871052889
:1025300001D30020887170478402002003480021E5
:1025400001600171417181717047000084020020B7
:10255000F0B5CA78002502F00F03D20601D58A78BB
:1025600013430A784FF00F0E12F0FF0F4FF00102E5
:102570001CD004680F8802FA05F63740B74211D123
:102580004FEA850C0EFA0CF724EA070703FA0CF45D
:102590003C43CF78282F02D0482F02D002E046617A
:1025A00000E006616D1C082DE4D304600C88FF2C4C
:1025B0001ED944685FF0000606F1080702FA07F525
:1025C0000F882F40AF420FD14FEA860C0EFA0CF75E
:1025D000BC4303FA0CF73C43CF78282F00D1456168
:1025E000CF78482F00D10561761C082EE4D34460D3
:1025F000F0BD0000F0B5144C002801DAE36900E0FA
:102600006368420D120185B2C0F301579540C0F3D3
:102610000346032F05D0C2020AD50322B2409343DA
:1026200007E023F07062636823F07063636002E088
:10263000AB4343F0706201B12A43002801DAE26142
:10264000F0BD6260F0BD00000000014002460020C5
:1026500092680A4200D001207047416170470161D1
:10266000704700000549096889B201EBC0000449C0
:1026700001EB4000008980B270470000505C0040D0
:10268000006000400549096889B201EBC0000449B7
:1026900001EB40008089C0F309007047505C0040A6
:1026A000006000400449096889B201EBC000034999
:1026B00031F8100080B27047505C0040006000406C
:1026C00010B50B4C0146072301222046FFF752FBB1
:1026D00001212046FFF78DFB02212046FFF718FB62
:1026E0000028F9D02046BDE81040FFF70EBB0000DF
:1026F000002401402DE9F04100250E4607462C46F6
:1027000005E03846FFF7DCFF641C0544E4B2B44240
:10271000F7D3B5FBF6F080B2BDE8F0810A4810B5FA
:102720000168001D0468001D006808180BD008220D
:10273000064900F06BF9054920460422BDE8104027
:10274000103100F063B910BDE8F7FF1F76010020DB
:10275000FEE7000070B50D4C0025C4F8A8510C48E8
:10276000016821F470410160016841F44051016049
:10277000C4F8AC51022004F5D47402F0D7FE012055
:102780002060022002F0D2FE256070BD0080214250
:10279000040C014038B50121082000F0B5FC4FF4CD
:1027A0004064ADF8004010208DF803000320064D72
:1027B0008DF8020069462846FFF7CAFE21462846E2
:1027C000FFF74DFF38BD0000000C014070B50D4C07
:1027D0000025C4F8A8510C48016821F4704101603B
:1027E000016841F4405101600126C4F8AC61022047
:1027F00004F5D47402F09AFE2660022002F096FEE0
:10280000256070BD00802142040C01402DE9F04795
:10281000814617480024016821F470410160016875
:1028200041F400410160134E254627464FF0010850
:10283000C6F8A871022002F079FEC6F8A8816006E9
:10284000040ED6F82C0108B1641CE4B2022002F098
:102850006DFE6D1CEDB2082DEAD3B9F1000F04D066
:10286000FFF778FF2046BDE8F087FFF7AFFFF9E7F5
:10287000040C0140008021422DE9F0410646144835
:10288000016821F470410160016841F44051016028
:10289000104C0027C4F8A8713D464FF00108F0091C
:1028A000C4F8AC017006060E022002F03FFEC4F828
:1028B000A881022002F03AFEC4F8A871022002F0BA
:1028C00035FE6D1CEDB2082DE9D3BDE8F0810000A6
:1028D000040C01400080214270B50D48016821F4CC
:1028E00070410160016841F440510160094C0120D0
:1028F000C4F8AC01C4F8A801042004F5D47402F0B3
:1029000015FE00256560042002F010FE256070BDF4
:10291000040C01400080214270B50D48016821F48B
:1029200070410160016841F440510160094C002090
:10293000C4F8AC010125C4F8A851042004F5D474EE
:1029400002F0F4FD6560BDE87040042002F0EEBDC9
:10295000040C01400080214270B513480024016836
:1029600021F470410160016841F4004101600F4DA4
:102970000126C5F8AC61304602F0D8FDC5F8A86163
:10298000012002F0D3FD07E0641CE4B2FA2C03D965
:10299000FFF7C2FF012070BDD5F82C010028F3D14C
:1029A000C5F8A80170BD0000040C01400080214260
:1029B00010B5134C2068017A022904D0042902D0F2
:1029C000062905D015E0FFF76FFB2068007A11E0BB
:1029D0004178052909D10178490606D1C07801F06E
:1029E00057F908480068006A80470748006880680F
:1029F0008047082021680872BDE8104000F036BB0F
:102A0000600100206801002064010020F0B500236F
:102A10000A24302537261F4611E000BFB4EB107F93
:102A200002D905EB107C01E006EB107C01F813C025
:102A300001EB430C00015B1C8CF80170DBB293428C
:102A4000ECD3F0BD38B501210C2000F05DFB4FF454
:102A50004070ADF8000048248DF8034069460748EF
:102A6000FFF776FD4FF47040ADF800008DF803409D
:102A700069460348FFF76CFD38BD000000080140BF
:102A8000000C014070B5174D00244FF4007128462A
:102A9000FFF7DCFD00B960244FF480712846FFF792
:102AA000D5FD00B94024104D4FF400512846FFF7E2
:102AB000CDFD00B920244FF480412846FFF7C6FD24
:102AC00000B950244FF480512846FFF7BFFD00B9EC
:102AD00030244FF400412846FFF7B8FD00B9102418
:102AE000204670BD00080140000C014038B50121AE
:102AF000092000F009FB01210A48FFF77BFD0820AF
:102B0000ADF8000010208DF803000220064C8DF86F
:102B1000020069462046FFF71BFD08212046FFF70B
:102B20009CFD38BD00023000000C014010B5064C81
:102B300006A0FDF7F5FBA17A0A4809B1052100E0DE
:102B40000121016010BD0000DC0300206C6561768E
:102B500065206C6F7720706F776572206D6F64658C
:102B60000D0A00006C02002010B5FFF713FE0321D0
:102B7000022000F05CF80021012000F058F800214C
:102B8000072000F054F8FF21052000F050F8002144
:102B9000062000F04CF88021BDE81040022000F033
:102BA00046B8000070B5032000F024F80446042065
:102BB00000F020F8014601F00F0101EB0410250997
:102BC000C0B204F043FD04460120A84004F026FDF5
:102BD000214604F04FFD04F0B5FB044A044B04F019
:102BE00047F8BDE8704003F0FDBC00000AD7A370B1
:102BF0003D0AA73F10B50446FFF76EFE9420FFF78D
:102C00003BFEFFF7A9FE2046FFF736FEFFF7A4FEC6
:102C1000FFF762FE9520FFF72FFEFFF79DFE0020D5
:102C2000FFF7F4FD0446FFF777FE204610BD70B5B0
:102C30000D460446FFF750FE9420FFF71DFEFFF7F8
:102C40008BFE2046FFF718FEFFF786FE2846FFF7AB
:102C500013FEFFF781FEBDE87040FFF75DBEFEE7A3
:102C60007047704770B50F23C47801780122F4B122
:102C7000144C2468457804F4E064C4F5E064240A44
:102C8000C4F10406E3408478B5401C402C4301F1B4
:102C9000E021230181F80034007800F01F018A4010
:102CA0004009800000F1E020C0F8002170BD01F073
:102CB0001F0082404809800000F1E020C0F8802118
:102CC00070BD00000CED00E00249084302490860B5
:102CD000704700000000FA050CED00E070B52F4DC4
:102CE0002868017844784A0606D001F07F00012860
:102CF00028D002282BD035E0092C06D0052C07D08F
:102D0000032C0ED0012C14D02CE001F0D1FA28E0D5
:102D1000C1787F292ED8817861BB818851BB807AA8
:102D200027E0C17801291DD18088D8B901F0DCFAEB
:102D300017E0C178012915D1818899B9407A8006B8
:102D40000AD40FE00B2C0DD101F024FB09E0012C7B
:102D500002D0032C03D005E001F0ACF901E001F052
:102D6000D5FA58B10E4920460968496988470328B1
:102D700002D018B108200DE009200BE0094A062016
:102D800000211268084B120403EBD2325160074A4B
:102D9000302111802968087270BD00006001002098
:102DA00064010020505C0040006000407001002081
:102DB00070B5002404F1B000C0B2002100F0F2F8B8
:102DC0000021022000F0EEF80021102000F0EAF8C7
:102DD00000250121002000F0E5F86D1CEDB2802DEA
:102DE000F7D3641CE4B2082CE4D370BD70B506467A
:102DF0005FF0070404F1B000C0B2002100F0D2F887
:102E00000021022000F0CEF80021102000F0CAF8C6
:102E10005FF07F0506EBC5000121005D00F0C2F800
:102E20006D1EF7D5641EE5D570BD000038B50121D3
:102E3000042000F069F97820ADF8000010208DF82A
:102E4000030001204B4C8DF8020069462046FFF735
:102E50007FFB78212046FFF702FC20212046FFF768
:102E6000FEFB642002F048FB20212046FFF7F5FB23
:102E7000C82002F041FB20212046FFF7F0FB002193
:102E8000AE2000F08FF80021022000F08BF8002126
:102E9000102000F087F80021402000F083F8002186
:102EA000812000F07FF80021CF2000F07BF8002186
:102EB000A02000F077F80021C82000F073F800216E
:102EC000A62000F06FF80021A82000F06BF8002188
:102ED0003F2000F067F80021D32000F063F80021C4
:102EE000084600F05FF80021D52000F05BF80021D3
:102EF000802000F057F80021D92000F053F800217D
:102F0000F12000F04FF80021DA2000F04BF800210A
:102F1000122000F047F80021DB2000F043F80021E8
:102F2000402000F03FF80021202000F03BF8002175
:102F3000022000F037F800218D2000F033F8002146
:102F4000142000F02FF80021A42000F02BF800211D
:102F5000A62000F027F80021AF2000F023F8002180
:102F6000AF2000F01FF8FFF723FF0021084600F014
:102F700003F838BD0008014010B50446B031C8B2AE
:102F8000002100F00FF8A41CC4F3031040F010005F
:102F9000002100F007F804F00F00BDE81040002108
:102FA000AFF3008070B5154E054600294FF0400183
:102FB000304602D0FFF753FB01E0FFF74EFB002441
:102FC00008213046FFF749FB28064FF01001304634
:102FD00002D5FFF744FB01E0FFF73FFB0821304635
:102FE000FFF73DFB6806641C050EE4B2082CE7D32E
:102FF0003046BDE870404021FFF731BB000801407A
:1030000010B50F4C2068007A022811D004280FD088
:10301000032804D0052802D0072805D008E0FFF7D0
:103020009DF82068007A04E006480068C068804780
:10303000082021680872BDE8104000F017B80000B1
:103040006001002064010020064B521C520803EB73
:10305000410105D031F8043B20F8023B521EF9D162
:103060007047000000600040704700000C4810B539
:1030700090F82C10002000F03FFE0A480068007A0B
:10308000082802D0092809D006E007494FF48050EB
:103090000880064910200880002010BD012010BDC6
:1030A000F4010020600100206E010020700100206A
:1030B00010B5012001F0E4FB064801210160002168
:1030C000054A0160031D19604FF4E0511180016051
:1030D000002010BD405C00406C010020034A516894
:1030E00021F440410143516070470000001002404C
:1030F000044A0029D16901D0014300E08143D16134
:103100007047000000100240044A0029916901D074
:10311000014300E0814391617047000000100240CC
:10312000044A0029D16801D0014300E08143D16005
:10313000704700000010024030B51F494A6812F085
:103140000C031E4A03D0042B01D0082B21D00260AF
:103150004A680F231A4C03EA1212A35C0268DA4091
:1031600042604B68072505EA1323E35C22FA03F368
:1031700083604B6805EAD323E35CDA40C2604968A8
:10318000032303EA9131231F595CB2FBF1F1016182
:1031900030BD4A684B6802F470124FF0020413F419
:1031A000803F04EB924202D04B689B0301D5054B54
:1031B00000E0024B5A43CAE70010024000127A00B6
:1031C0004801002000093D000149C1F8D8007047BE
:1031D000000042422DE9F041214C072800D0207028
:1031E00022781F4D0627052104261E48062A0BD2E9
:1031F000DFE802F0030C11161E27686810B1217079
:10320000BDE8F08100F030F82770F9E700F02CF805
:103210002670012022E00220607003202070EFE77A
:103220006078401E607060780028E9D12670E7E77A
:10323000026892B242F01002026021700A206070AF
:10324000DEE76178491E617061780029D8D1016894
:1032500089B221F010010160277000206860CFE77B
:1032600074020020405C004010B5064C206880B21B
:1032700020F004002060FFF759FC4FF43F4020602D
:1032800010BD0000405C004007480068052809D1D7
:1032900006480168491C0160062903D1002101602C
:1032A000FFF77EB8704700006C02002090010020FC
:1032B0004FF480610148FDF75EB90000EC09002081
:1032C0002DE9F84F0E46002715460446B04201D2BC
:1032D0000C460646102D00D91025DFF87891A01B6A
:1032E000C0B2D9F80C10A8428C70C87001D3681E07
:1032F000C87000F089F95849502802D0202811D010
:1033000028E0D9F80C20107808B10B7823B1507858
:1033100000B3097819B11DE0401E10701AE0401E7C
:10332000507017E0D9F80C000278C3789A4204D2A2
:1033300091F800C0BCF1000F07D04278EB1A5B1E79
:103340009A4207DA097819B104E0521C027001E0D0
:10335000521C4270D9F80C10F30048780A781044D7
:1033600000F0FF08E000C1E90103514200EBC10099
:10337000C1B28620009039A30122002000F074FC25
:103380000226062C0AD00096D9F80C007F2241684C
:10339000002008310B4600F083F84CB10096D9F8B4
:1033A0000C007F22816800204B1E491E00F078F837
:1033B000284603F00DFC044626480E46C1684868BE
:1033C00089688146401A083003F002FC22463346E1
:1033D00003F0F6F906460C4608F1010003F0F8FB8D
:1033E0003246234603F044FC82468B4609F107002F
:1033F00003F0EEFB52465B4603F0BAFE03F0A4FB7B
:10340000814603F0E5FB3246234603F01DF903F045
:103410009BFB0346042000907F2249467C2000F05D
:10342000A5F8012000900B487F22C068D0E9013147
:103430007C20DB1D00F09AF8094807E0B84501D16F
:10344000012100E00021C1557F1CFFB2AF42F5D938
:10345000BDE8F88F040300207D02002025630000F2
:10346000210E002010B5802816D2402914D207233F
:10347000A3EBD10301F00701C1F107040121A14031
:10348000064CDBB204EBC000002AC25CC9B201D01A
:103490000A4300E08A43C25410BD0000EC0900203A
:1034A0002DE9F84F9846131A1BB2A8EB01040FFA46
:1034B00084FC002B01DD012500E000254FF0FF34E6
:1034C00004EB45050095BCF1000F01DD012500E08E
:1034D000002504EB450B002706B20DB23C46002B3D
:1034E00000DA5B420FFA83F9BCF1000F01DACCF18C
:1034F000000C0FFA8CFAD1451DDD009802EB000894
:1035000015E07F1C3B46294630460A9A01F078FCBC
:1035100004EB0A0004B2B9EB440F05DC05EB0B0029
:1035200005B2A4EB090004B20098304406B2B045DD
:10353000E7D1BDE8F88FD84415E07F1C3B4629460B
:1035400030460A9A01F05CFC04EB090004B2BAEBC5
:10355000440F05DC0098304406B2A4EB0A0004B224
:1035600005EB0B0005B2A845E7D1E2E72DE9F843EA
:103570000646089F1D4690460C464FF00009780706
:1035800015D4A7B1324610460097FFF789FF2B46A6
:103590004246194630460097FFF782FF42462B46C7
:1035A000214610460097FFF77BFF00970FE0464546
:1035B00002D9304646468046AC4201D91C460D46EB
:1035C0000FB14FF00109AC4206D1CDF8009023466F
:1035D00042461946304607E0464512D132462B4650
:1035E00021461046CDF80090FFF75AFFBDE8F8835A
:1035F0002346424619463046CDF80090FFF750FF6B
:10360000641CAC42F4D9F1E701480078704700002F
:103610007C020020FFF7EABB10B5FFF707FCBDE80E
:103620001040FFF7C5BB000010B50446FFF7F4FFDC
:103630004FF480610348FCF79EFF2046BDE8104030
:1036400000F024B8EC090020FEF76ABF10B5FEF7C1
:1036500055FF0C4C2070606800F01EF860688068B0
:103660008047207860280CD16078002809D16068F4
:103670004068002805D060600348002100680170A0
:10368000417010BD7C0200201003002001494860F9
:10369000FEF754BF7C020020F8B505460068FCF731
:1036A0004BFF001D00EB40004006060EC6F18000F7
:1036B000C0F347042868009012A301223821A01CFF
:1036C00000F0D2FA01273923A21C194606200097E0
:1036D000FFF7E6FEA019392379221946801E0097CC
:1036E000FFF7DEFE686800280BD008484078002805
:1036F00007D18520009006A301223821002000F088
:10370000B3FAF8BD5B202573205D00007C02002029
:10371000256300002DE9FC5F8B46044600F0FF089E
:1037200015461E461946684600F05CF89DF80000F4
:10373000203D00EA06099DF8020005F0FF0A401E40
:1037400045B21FE09DF80220019900260AFB0210F5
:103750002F5C380601D54A4603E0B9F1000F15D0B9
:10376000002259462046FFF77DFE7806070E641CAE
:10377000A4EB080008280BD0761CF6B2082EE8D37C
:103780006D1E6DB2002DDDDABDE8FC9F0122E8E779
:1037900044460BF1010BF3E72DE9FC418846054651
:1037A00016461F4600241946684600F01BF809E03B
:1037B0003B4641462846FFF7ADFF9DF80100641CDB
:1037C0000544E4B2325D002AF2D1BDE8FC8100007C
:1037D00010B50348FFF71EFFBDE81040FFF768BDB6
:1037E000EC09002010B5084C0829D4E9003205D0B6
:1037F00001DDF72902D0C0E9003210BDD4E9021280
:10380000C0E9001210BD00008C0200200FB408B502
:1038100003460C480078800711D4102B0FD21846AD
:1038200001F004FB01280AD1184601F00DFB014606
:1038300004A8009001220620039B01F0F9FB01B0CF
:103840005DF814FB7D0200202DE9FF4F8DB00024B0
:10385000DDE91B98FB48DDF868A00B940A940994F5
:1038600000782546A34627462646800772D442465E
:10387000504649461D9B03F0BFF906D250464946C3
:10388000C246DDF8749080461D910D98102861D2D3
:103890000F98062811D2DFE800F0030610090C0E7D
:1038A0001E980B900BE01E980A9008E0DDF878B0A7
:1038B00005E01E9F03E01E9E01E01E9809900D98F2
:1038C00001F0B4FA012845D10D9801F0BDFA059038
:1038D000DD480D99405C01281DD1FFF795FE009051
:1038E000402804D1D748017881F001010170D54802
:1038F0000078C0070FD0D54890F9000001F0AEFA6B
:10390000044600980D46502806D0202873D0302851
:1039100072D0102871D032E10F9806286FD2DFE8FC
:1039200000F0031A6E2F44580B9890F9000003F032
:1039300038F922462B4602F087FE52464B4603F0EA
:103940005BF972D82046294603F0CEF80B99097826
:10395000084488E062E10A98007803F039F92246C9
:103960002B4602F071FE52464B4603F045F97DD8D6
:103970002046294603F0E8F80A99097808448BE0C4
:10398000DBF8000003F00DF922462B4602F05CFE46
:1039900052464B4603F030F969D82046294603F0D9
:1039A000A3F8DBF80010014490E0386803F0CAFC8B
:1039B00022462B4602F048FE52464B4603F01CF9C5
:1039C0007DD82046294602F00DFE396803F0E6FC5A
:1039D00092E0D6E9000122462B4602F035FE52461F
:1039E0004B4603F009F96BD8D6E9000122462B4675
:1039F00002F02AFE94E019E0AEE0B4E0FFE7099897
:103A0000B0F9000003F0CDF822462B4602F01CFE70
:103A100052464B4603F0F0F870D82046294603F092
:103A200063F809990988084493E01EE00F98062876
:103A30007AD2DFE800F0031D79344E640B9890F9D8
:103A4000000003F0AEF822462B4603F091FB4246FD
:103A50001D9B03F00BFA08D82046294603F044F8D2
:103A60000B990978081A0B99087097E016E02FE077
:103A70000A98007803F0ACF822462B4603F078FB56
:103A800042461D9B03F0F2F908D82046294603F070
:103A90005BF80A990978081A0A99087082E0DBF83D
:103AA000000003F07EF822462B4603F061FB4246FD
:103AB0001D9B03F0DBF97FD82046294601E01CE07E
:103AC00030E003F011F8DBF80010091ACBF8001011
:103AD00072E0386803F036FC22462B4603F048FBC0
:103AE00042461D9B03F0C2F969D82046294602F0E0
:103AF00079FD396803F08AFE386060E02BE0D6E992
:103B0000000122462B4603F033FB42461D9B03F087
:103B1000ADF958D8D6E9000122462B4603F028FB20
:103B2000C6E900014FE0FFE70998B0F9000003F093
:103B300038F822462B4603F01BFB42461D9B03F040
:103B400095F91CD82046294602F0CEFF099909882C
:103B5000081A0999088012E03C4991F900000428EC
:103B60000DDA401C0AE00F98042810D005280ED06A
:103B7000364991F90000002801DD401E08700F98B9
:103B800006284ED2DFE800F00A0E4D181B1F2F4901
:103B900091F9000010F1030FEFDCF0E70B9890F9BA
:103BA000000001E00A980078009029A30122442037
:103BB000059900F059F810E0DBF80000F4E73868E8
:103BC00003F0C0FB01E0D6E90001CDE9000121A32B
:103BD00001224420059900F047F81A480078C007F0
:103BE00004D019480D99405C01281ED00E98009011
:103BF00019A301220620059900F036F81348C06881
:103C00004178007801440D98814207D184200090CA
:103C100012A3012238217A2000F026F811B0BDE865
:103C2000F08F0998B0F90000BEE783200294CDE937
:103C30000350822000900AA3FE220020059900F084
:103C400013F8DBE77D020020210E00200403002092
:103C50002564000025660000257300002563000030
:103C600025632566256300000FB408B506AB0093F5
:103C7000059B01F0DDF901B05DF814FB7047000011
:103C8000024920F00700086070470000505C0040C7
:103C9000F0B50E490E4D48F68F770B78002148F2AB
:103CA000800C0BE0CEB205EB8604D4F8002C3A4031
:103CB000324342EA0C02C4F8002C491C9942F1D369
:103CC000044940F080000860F0BD0000440200207C
:103CD000005000404C5C0040054A21F00101126890
:103CE00092B202EBC000034A02EB400081607047D1
:103CF000505C0040006000400D4A12683E2992B2BC
:103D000002EBC0000B4A02EB400209D94809C90680
:103D100001D1401E80B24FF4004141EA802004E00E
:103D20004808C90700D0401C80021060704700009E
:103D3000505C00400C60004082000A480244D2F807
:103D4000000C4BF68F731840CB0401D580F48050E3
:103D5000890401D580F4005048F280010843C2F87C
:103D6000000C704700500040810007480144D1F822
:103D7000000C4BF68F72104080F4405048F28002E5
:103D80001043C1F8000C704700500040054A21F074
:103D90000101126892B202EBC000034A42F810100F
:103DA00070470000505C004000600040044A126808
:103DB00092B202EBC000034A02EB40004160704740
:103DC000505C00400060004082000A480244D2F883
:103DD000000C48F6BF731840CB0601D580F01000E8
:103DE000890601D580F0200048F280010843C2F81E
:103DF000000C704700500040810007480144D1F892
:103E0000000C48F6BF72104080F0300048F280028B
:103E10001043C1F8000C7047005000408200054874
:103E20000244D2F8000C48F68F1318400843C2F839
:103E3000000C7047005000400CB50021264801914D
:103E40000091026842F4803202604FF4A06302687D
:103E500002F400320092019A521C0192009A12B9A7
:103E6000019A9A42F3D10268920333D5012100915D
:103E70001A490A6842F010020A600A6822F0030236
:103E80000A600A6842F002020A60416841604168C3
:103E90004160416841F480614160416821F47C11D6
:103EA0004160416841F4E8114160016841F080716E
:103EB000016001688901FCD5416821F0030141607E
:103EC000416841F0020141604168C1F3810102296A
:103ED000FAD10CBD00910CBD001002400020024040
:103EE00010B50020FFF770F90121BDE81040C805AA
:103EF000FFF7FEB870B516480068174D0004C10BF7
:103F000014480144098989B200EB41042868017A08
:103F100009290FD02178017061784170A088FDF7E0
:103F2000D8FF296848802089FDF7D3FF2968888059
:103F3000A089C880286801210172C08828B1FEF7D5
:103F40005FF9BDE87040FFF791B8FEF7C7FEF8E7EC
:103F5000505C004000600040600100202DE9F0410D
:103F6000414C4249022620690027B505884206DDFA
:103F700003F076FA03F036FB6662A0616EE0B0F102
:103F80007D5F61DA3A49884201DA676200E0666281
:103F90003749384A49420144914202D24FF4FA511A
:103FA00021623549354A0144914202D24FF47A6187
:103FB000216233490144A94202D24FF4FA612162DD
:103FC00030490144A94202D24FF47A7121622E494C
:103FD0000144A94202D24FF4FA7121622B490144F3
:103FE000A94201D2FA21216229492A4A0144914277
:103FF00001D27D2121622849284A0144914201D2FF
:104000003C21216226490144A94201D21E2121629C
:104010002449254A0144914201D20F2121622349BA
:10402000234A0144914201D8082121626FF079515D
:104030000144A94201D2042121626FF07B5108445E
:10404000A8420BD2266209E0A0F17D51B1F14C7F6C
:1040500004D203F0C7FAE06101206062E068A84280
:1040600000DA6762BDE8F0810000002000007042C5
:104070006F1203396F0F420022DEBAC6C8797F0083
:104080005A643BC65A64BBC55A643BC55A64BBC438
:104090005A643BC4B4748500A6EFB5C373BC8200F8
:1040A000333333C33333B3C24B777700E8BB3BC200
:1040B000E8BB7B002DE9F04138480068017811F039
:1040C0007F0102D0022905D066E0417A01F0DF01CC
:1040D00041724EE0418800295ED10179F1BB4179FE
:1040E000304D21F080040A0605EB84022C4BD2F8F7
:1040F000002C03D5C2F30112120102E0C2F3013217
:1041000012031E782346A64246D93AB3807A28B3D2
:1041100008064FEA84000ED52844D0F8000CC0F3FE
:104120000110012821D11846FDF79AFF20463021C1
:10413000FFF74AFE19E04619D6F8000CC0F301302B
:10414000012812D14BF68F7748F28008A4B11846A7
:10415000FDF772FFD6F8000C384000E01CE080F458
:10416000405040EA0800C6F8000C0F48006840695B
:1041700080470020BDE8F0810C4890F82C1000200A
:10418000FFF7BAFDD5F8000C384080F4405040EA03
:104190000800C5F8000CE8E70220EBE7600100200A
:1041A000440200200050004068010020F40100207B
:1041B00010B5074C30B10748006800688047206898
:1041C0000A3010BD216801200882002010BD0000C7
:1041D0006001002068010020054A13685A8A10B166
:1041E0000868104470478888801A18820020704739
:1041F0006001002010B5074C30B1074800688068A6
:10420000804720680C3010BD216801200882002002
:1042100010BD00006001002068010020204910B599
:10422000096860B11F48002202800A7853060AD04C
:1042300002F07F02012A16D0022A16D001E00220E5
:104240000882002010BD497A8A06027802D542F021
:10425000020201E002F0FD0249060270D1B211D45F
:1042600001F0FE0110E00F4810BD4A791107130656
:104270000D4A02EB9161D1F8001C07D5C1F3011181
:1042800006E0017841F00101017003E0C1F3013162
:104290000129F6D00548006800698047E3E700007F
:1042A000600100205A0100200050004068010020F9
:1042B0000A4810B500680A4AC1785278914203D87A
:1042C00082780AB982880AB1022010BD817205483D
:1042D000006840688047002010BD00006001002099
:1042E0004402002068010020064810B50068417AA9
:1042F00041F02001417204480068C06980470020F5
:1043000010BD0000600100206801002070B51D484C
:104310001D4D0368597921F0800005EB80000C06E3
:10432000D0F8004C21F0800203D5C4F3011424011D
:1043300002E0C4F301342403144D2D78954210D9C2
:104340005A8872B96CB19A7A5AB10906D0F8001C31
:1043500048F2800207D548F6BF73194081F010017A
:1043600006E0022070BD4BF68F73194081F4805136
:104370001143C0F8001C064800688069804700208F
:1043800070BD000060010020005000404402002089
:104390006801002010B50E4C0E4A20681268C178E2
:1043A00092694079904721688A7A22B118B90879D0
:1043B00008B9887808B1022010BD07480068C068B5
:1043C000804720684179C172C1780173002010BD17
:1043D00060010020640100206801002078B41C49BD
:1043E000002000900A681B4B94B21B4A03EB800527
:1043F000D5F8005CADB242F82050401C0828F5D337
:1044000044F48060086040F00100086020F001047E
:104410000C600F48001D05686D05FCD54FF6FF3593
:104420000560002052F8205003EB8006ADB2C6F8BC
:10443000005C401C0828F5D344F0080008600868B8
:1044400080B240F00400086078BCFEF73FB800007E
:10445000405C004000500040CC0900204FF0E021BB
:104460000428086903D020F004000861704740F078
:104470000400FAE7704700000F4810B5016841F0EA
:104480000101016041680D4A1140416001680C4A18
:1044900011400160016821F480210160416821F42C
:1044A000FE0141604FF41F018160FFF7C5FC054923
:1044B0004FF00060086010BD001002400000FFF8DF
:1044C000FFFFF6FE08ED00E010B501218C07204645
:1044D00000F04CF801280DD10121204600F039F8F8
:1044E000FEF7D0FAFFF7B0F8FFF7B0F8BDE81040DC
:1044F000FFF76EB910BD7FB50C4605460121084691
:10450000FEF7F6FDADF800400020ADF80450ADF820
:104510000600ADF802004FF080446946204600F0E6
:1045200039F801221146204600F02CF81C208DF8A5
:104530000C0002218DF80D108DF80E1001208DF861
:104540000F0003A8FEF78EFB0121204600F004F8BF
:104550007FBDC943018270470029018802D041F024
:10456000010101E021F001010180704702460020B5
:10457000138A92890B4202EA010202D0002A00D07B
:1045800001207047002A828901D00A4300E08A4353
:104590008281704730B502881B4B1C4C98420DD06D
:1045A000A0420BD0B0F1804F08D0194DA84205D0E1
:1045B000184DA84202D0184DA84203D122F0700530
:1045C0004A882A43154DA84206D0154DA84203D06B
:1045D00022F44075CA882A4302808A8882850A8824
:1045E000028598420AD0A04208D00E4A904205D0D7
:1045F0000D4A904202D00D4A904201D1097A0186BB
:104600000121818230BD0000002C014000340140B6
:104610000004004000080040000C00400010004072
:1046200000140040004001400044014000480140A7
:1046300070B5154C40F22551204600F08BF800284B
:104640000ED0204600F014F9C2B2104801880B04C5
:1046500006D44C044FF0000306D50A2A01D003808B
:1046600070BD41F400410DE00D2A09D0C1F30D04E5
:10467000074D491C89B22A550180C729EFD870BD62
:1046800041F48041018070BD003801403C010020B0
:10469000140300200029818902D041F4005101E077
:1046A00021F400518181704710B50D490020A1F817
:1046B0000204A1F800040B490B4C088021790BA0DF
:1046C000FBF72EFE61790FA0FBF72AFEA17914A05B
:1046D000FBF726FE19A02168FBF722FE012010BD82
:1046E000F803002072010020DC0100206C696E6577
:1046F000636F64696E672E666F726D61743A2564CC
:104700000D0A00006C696E65636F64696E672E70D8
:104710006172697479747970653A25640D0A0000D4
:104720006C696E65636F64696E672E646174617431
:104730007970653A25640D0A000000006C696E65A9
:10474000636F64696E672E626974726174653A257D
:10475000640D0A0030B501F01F0201240025C1F3E9
:10476000421304FA02F2012B0FD0022B0FD0838ADE
:104770004FEA11210088134204FA01F400EA040010
:1047800001D000B10125284630BD8389F0E7038AB6
:10479000EEE710B5C1F3421301F01F040121A1405F
:1047A000012B07D0022B07D01430002A026805D055
:1047B0000A4304E00C30F8E71030F6E78A43026061
:1047C00010BD000030B50446008A85B00D464CF699
:1047D000FF710840E98801432182A1894EF6F31058
:1047E0000140A8882A8910436A890A431043A0819E
:1047F000A08A4FF6FF410840A9890143A18268467B
:10480000FEF79AFC1948844201D1039800E002980F
:10481000A189090400EBC00101EB0010296801D552
:10482000490000E08900B0FBF1F06422B0FBF2F136
:1048300009010B096FF018056B4300EB8300A38996
:104840001D044FF0320306D503EBC000B0FBF2F0BD
:1048500000F0070005E003EB0010B0FBF2F000F001
:104860000F000843208105B030BD00000038014032
:104870008088C0F3080070474FF48020FDF7E8BD42
:1048800008B102A000E007A0FBF74ABD75736220E3
:1048900070756C6C20757020656E61626C650D0AB8
:1048A000000000007573622070756C6C20757020BC
:1048B00064697361626C650D0A0000000648054971
:1048C000022201600A72064A0449C0E9011208681E
:1048D00000470000DC03002060010020F4010020FC
:1048E000480200203EB54FF480242046FDF7B0FD7D
:1048F000082001948DF8090001248DF80A4001A8D0
:10490000FDF7ACFD14208DF800008DF80140002566
:104910008DF802508DF803406846FEF7A3F92A206F
:104920008DF800008DF801506846FEF79BF93EBDFA
:104930002DE9F0414C4E88B0002430684B4D688022
:1049400068884B4F39880840800507D54FF6FF50DF
:1049500030602878401C2870FEF796FC68883988FB
:104960000840000401D5FDF7B9FA688839884FF688
:10497000FF380840400504D5C6F800803D4840682F
:104980008047698838880140890402D54DF6FF7157
:10499000316069880140C80405D54EF6FF7030606B
:1049A0000020FEF717FC68883988084000050BD501
:1049B0003148007810B1FFF711FD02E00220FEF748
:1049C00009FC4FF2FF703060688839880840C005E4
:1049D00046D54FF6FF6030602348001D00684FF059
:1049E0000002000438D56868401C686068680328C5
:1049F00033D91D48001F016809072ED4016889B208
:104A0000A9601E494FEA0D0301EB8407D7F8007C2B
:104A1000BFB243F82470641C082CF5D3AC6844F092
:104A20000104AC60AC68A4B20460AC6824F001047A
:104A3000AC60AC68A4B2046030684005FCD5C6F830
:104A40000080002053F8204001EB8006A4B2C6F895
:104A5000004C401C0828F5D36A600720FEF7BAFB1B
:104A600008B0BDE8F0810000445C004094010020E3
:104A70006C010020F4010020700200200050004072
:104A8000FFF756BF10B5044601210420FEF73CFB9A
:104A90000C49086824B14FF6FD721040086010BD43
:104AA00080B240F0020008600748016821F47F21CD
:104AB0000160016841F44C31016004490020C1F8F3
:104AC000B00110BD405C00400408014000002142DC
:104AD00005490020086005494FF43F40088002491D
:104AE000091F086000207047445C00406C010020F2
:104AF00070B500F07F060D463046FDF7C3FD044655
:104B00003046FDF7AFFD014622462846FEF79CFAE7
:104B1000204670BDF0B500242646124A1AE01388DC
:104B2000055D1F0414D45F0404D50A2D0FD143F48E
:104B3000004314E00D2D10D0C3F30D07DFF828C09B
:104B40005B1C9BB20CF807501380C72B00D9168052
:104B5000641CE4B28C42E2D3F0BD43F48043138082
:104B6000F6E7000072010020C40800200849B1F8EF
:104B700000248854B1F80004401CA1F80004B1F8E6
:104B80000004B0F5806F02D10020A1F80004704746
:104B9000F8030020FEE70000094B10B5521C520834
:104BA00003EB41010AD000BF10F8013B521E10F880
:104BB000014B43EA042321F8043BF5D110BD00006A
:104BC00000600040104A10B500211268212802D070
:104BD000202807D016E0107800F07F00212811D19E
:104BE0000A4908E0107800F07F00212800D1084928
:104BF000084B2020187029B100209161508288470D
:104C0000002010BD022010BD60010020314C0008C2
:104C1000A54D0008D80100200149FFF7DDBA0000CA
:104C2000EC0100200149FFF7D7BA0000E4010020A1
:104C300008B1044870470449082009680882002028
:104C400070470000DC010020600100200549096870
:104C5000C978042901D900207047034A02EBC10139
:104C6000FFF7BABA600100202402002009B9012828
:104C700001D90220704700207047000007490968E9
:104C8000097801F07F01212903D1022803D02228CD
:104C900001D0022070470020704700006001002012
:104CA000334810B50068334A00218172D2794272CC
:104CB000C1720846FEF7E4FF4FF400710020FFF7D1
:104CC000ADF810210020FFF77FF840210020FFF70A
:104CD00003F880210020FFF759F80020FDF7D4F9F0
:104CE000254890F82C100020FFF706F80020FFF769
:104CF0003BF800210120FFF791F8C0210120FFF7C8
:104D000045F820210120FFF75FF800210120FFF77F
:104D100013F84FF4C0610220FFF780F84FF4807160
:104D20000220FFF733F800210220FFF705F82021C9
:104D30000220FFF749F800210320FFF76FF84FF436
:104D400088710320FEF7C8FF40210320FEF7D4FF3F
:104D50004FF440510320FEF7EFFF00210320FFF73F
:104D600033F80020FEF794FF04490120086010BDCD
:104D700060010020147A0008F40100206C02002079
:104D80000348807A002802D0024905200860704755
:104D9000DC0300206C0200200149042008607047F9
:104DA0006C02002008B104487047044908200968D3
:104DB0000882002070470000DC0100206001002014
:104DC00010B5044C2078202803D1FFF76DFC00209B
:104DD000207010BDD80100207047000010B5FDF70D
:104DE0009DFC0548002400688472FEF761F9FFF716
:104DF0006FFE0248046010BD600100206C020020BC
:104E000012F0030206D0012A08D0022A04D0032A95
:104E100004D106E0002202E0DA07FBD00122FEF70F
:104E200021BB03F00302022AF8D2F3E70549C9685F
:104E30004A78801A04D4C978884201DC012070477E
:104E400000207047040300200349C9688A78497824
:104E5000101A0844C0007047040300202DE9F047F1
:104E600005004FF0000400D5684246B200200B490F
:104E70000B4FDFF83080DFF830900AE0002D02DBC6
:104E800000223B4601E042464B4601F0F1FE641C25
:104E900024B2B442F2DBBDE8F08700000000F03F2E
:104EA000000024409A9999999999B93F10B586B014
:104EB000092200210620FEF703FA374C206802F091
:104EC00041FA02460B4635A10020FEF79FFC35A1B2
:104ED0000120FEF79BFCE06802F034FA02460B4624
:104EE00033A10220FEF792FC606A20B1012807D0AE
:104EF00002280DD107E030A10320FEF787FC07E070
:104F000033A1E26901E0226A32A10320FEF77EFCB0
:104F1000606902F017FA01F079FA02460B4630A1F7
:104F20000420FEF773FC1C48A168A03050F8210053
:104F300002F008FA02460B462BA10520FEF766FC9C
:104F400015486168283050F8210002F0FBF902464C
:104F50000B4627A10620FEF759FC0F4825490830CB
:104F600004900020CDE90000CDE90201024622A113
:104F70000720FEF769FC08481E49001D0490002028
:104F8000CDE90000CDE9020102461DA10820FEF78F
:104F90005BFC06B010BD0000000000204241543A06
:104FA000256656006C756D696E616E63653A00002A
:104FB00025666C75780000006F7665726C6F6164B1
:104FC000206F72206E6F206C6967687400000000AB
:104FD0002564730074696D653A312F256400000003
:104FE00045563A256600000049534F3A25660000B1
:104FF0004625660000003E4069736F6E756D3A008D
:10500000416E756D3A000000490050EAC12018BF9A
:1050100004204A0D18BF40F0010040F2FF72B2EBCD
:10502000515F08BF40F00200012808BF052070470B
:105030002DE9FF4F93B0C6B203200F901D464FF0ED
:10504000000B68461599FEF7CDFB0020CDF8400017
:1050500015F9010B002878D0252801D0C2B2ADE0A7
:105060004FF0000A15F9010BD1465146302804D003
:105070002D2804D02E2805D008E0012000E00220D1
:10508000824601E04FF0010B15F9010BA0F130024F
:10509000092A11D8BBF1010F07D009EB890200EBF7
:1050A0004200303800F0FF09EEE701EB810100EB30
:1050B00041003038C1B2E7E7BBF1010F03D1072946
:1050C00000D907210F916C2801D04C2803D115F984
:1050D000010B4AF0040A002837D0A0F16101024612
:1050E000192901D8203A52B24F2A71D008DC422A3D
:1050F0006FD0432A5ED0442A6CD0462A06D16AE09B
:10510000532A10D0552AF7D0582A7DD0DDE9141340
:10511000C2B23046FEF7FEFA9DF801003044C6B236
:105120000120109044E12098002450F8048B209036
:1051300001E0641CE4B218F804000028F9D100274B
:1051400003945FEA8A700DD511E035E1DDE91413AF
:1051500020223046FEF7DEFA9DF801007F1C304425
:105160003FB2C6B22046641CE4B24845EED3DDE946
:10517000141342463046FEF70FFB9DF801100398CA
:1051800001FB0060C6B20398384407B20BE0DDE9CA
:10519000141320223046FEF7BDFA9DF801007F1C53
:1051A00030443FB2C6B22046641CE4B24845EED358
:1051B0001097FDE0209810F8042B2090DDE91413DF
:1051C0003046FEF7A7FA9DF801003044C6B2EFE082
:1051D00078E075E078E020980022C01D20F00700FC
:1051E0001346F0E8021420908846A3460846594624
:1051F00001F002FD05D20F988BF0004B40F0080043
:105200000F904046594600E060E001F06DFC07B2A7
:105210000F98012400F00700059005E004EB8401DD
:105220004900401E0CB2C0B20128F7D5384601F043
:10523000B8FC42465B4601F0A9FE80468B462046FC
:1052400001F0AFFC42465B4601F012FD01F04CFC60
:1052500002B200204FF030084FF00A0C0BAB05995A
:105260000EE04AB192FBFCF40CFB142492FBFCF21E
:10527000303412B21C5401E003F80080401CC0B26C
:10528000491EC9B2EDD22E211954401C5FFA80F498
:1052900097FBFCF00CFB107097FBFCF130301855BD
:1052A000641C0FB2E4B20FB1102CF1D30F980007B9
:1052B00003D52D201855641CE4B24FF0000B38E0E4
:1052C000022304E0082302E00A2300E010235FEA3F
:1052D0004A7101D4442A05D0209C442A02CC20944F
:1052E00003D007E0209A02CA2092002902DA49423C
:1052F0004AF0080A00240BAFB1FBF3F203FB1212D1
:10530000B1FBF3F152B2092A05DD782817D04FF02E
:10531000070C624452B230323A55641CE4B209B10F
:10532000102CE9D35FEA0A7003D52D203855641C90
:10533000E4B227465FEACA7004D0302003E04FF0A1
:10534000270CE6E72020804609E0DDE914134246F9
:105350003046FEF7DFF99DF801003044C6B25FEA3F
:105360008A7004D438467F1CFFB24845EDD30DF156
:105370002C0A641EE4B2DDE914131AF80420304646
:10538000FEF7C8F99DF80100002C3044C6B2F0D1F8
:1053900009E0DDE9141342463046FEF7BBF99DF8FB
:1053A00001003044C6B238467F1CFFB24845F0D3F6
:1053B0001098401C7FF44CAE17B0BDE8F08F2DE97B
:1053C000F0414F1E00EBC7010446D1E9000115462C
:1053D0001E4637F006020DD02A46334601F048FC3F
:1053E0007F1E04EBC703D3E9002301F02DF937F04A
:1053F0000602F1D1022F25D0042F13D0062F18BF9B
:10540000BDE8F0812A46334601F032FCD4E90A2394
:1054100001F01AF92A46334601F02AFCD4E90823A0
:1054200001F012F92A46334601F022FCD4E90623A2
:1054300001F00AF92A46334601F01AFCD4E90423A4
:1054400001F002F92A46334601F012FCD4E90223A6
:1054500001F0FAF82A46334601F00AFCD4E90023A9
:10546000BDE8F04101F0F0B80022134610460149B2
:1054700001F0A6B90000F03F012202F07CBA01F071
:10548000E3B8002213461046114601F099B940F2E4
:10549000013200204FF0E04102F06DBA024A0020D4
:1054A000110702F068BA000001FDFFFF30380A283A
:1054B00001D20120704700207047704710B56FF08F
:1054C0000400FEF7CBFF094809490068B0FBF1F082
:1054D000C1B2084801EB41020170C2EBC1114FF6A5
:1054E000FF7202EAC101418010BD000024010020CA
:1054F00000127A00380100200B49498848434FF0D8
:10550000E021486100228A61086940F001000861D9
:105510000869C30701D0C003FAD5086920F001006B
:1055200008618A6170470000380100200B49097842
:1055300048434FF0E021486100228A61086940F049
:10554000010008610869C30701D0C003FAD50869E2
:1055500020F0010008618A617047000038010020D6
:1055600004490A885206FCD5024AC1B2121D1180B4
:1055700070470000003801402DE9F04DC84A002472
:1055800090B0914205DA21F00043934201D805D151
:1055900020B110B0BDE8F04DFFF76EBFB1F5801F30
:1055A0001BDA53EA000209D0002911DA0120FBF7C7
:1055B0000DF810B0BDE8F04DFFF763BF0220FBF718
:1055C00005F8FFF751FF10B081F00041BDE8F08D04
:1055D0006FF03504362202F0CEF904EB2152C1F30C
:1055E0001308B049A2F2FF33414401F4801282F063
:1055F0007F6103EB225281F04051009241EA0801A1
:105600000022A94B01F0B4FD044608F10200A74EA8
:10561000C0F313000D467E44032867D2D6E9002369
:10562000204601F025FA1ED10098002802BFD6E9D5
:10563000000110B0BDE8F08D01F0B3FA07460C464A
:105640009B4A9C4B01F014FB06460D469A4A9B4B25
:105650003846214601F00CFB10B032462B46BDE81F
:10566000F04D00F0F1BF4FF05532954B20462946E2
:1056700001F0FEFA0022934B01F088FC06460F462B
:1056800022462B461046194601F0F2FA32463B46B6
:1056900001F0EEFA064600980F46F0B101F081FAEB
:1056A00080468A46824A834B01F0E2FA32463B4604
:1056B00001F06CFC22462B4601F05AFD05460C46D3
:1056C0007D4A7E4B4046514601F0D2FA10B02A4640
:1056D0002346BDE8F04D01F04BBD0B4610B03246FD
:1056E00020462946BDE8F04D01F042BD00224FF0B2
:1056F0008043204600F0A8FF02460B46204629467C
:1057000001F05EF806460F46009801F04AFACDE92E
:10571000040132463B461046394601F0A9FA0C9086
:1057200069480C9A4044019009910B46104601F0DB
:105730009FFA8246024665488B46C8F151080B46DF
:1057400008F5D72803217844FFF739FE52465B4617
:1057500001F08EFA0A905E480D9152465B46042194
:105760007844FFF72CFE099B0C9A01F081FA8446DD
:1057700001980D9B40EA080860460A9A00F064FF11
:1057800083460891B8F1000F4EDD4FF0FF322046FE
:10579000294602F0F0F822462B4601F069FA8046CD
:1057A00000988A4660B3DDE90401414A414B01F0AB
:1057B0005FFA099100905A4640465146089B00F016
:1057C00043FF32463B4601F053FA099B009A00F032
:1057D0003BFF4246534601F0D9FB22462B4601F0DF
:1057E000C7FC04460D46DDE90401334A334B01F0A2
:1057F0003FFA10B022462B46BDE8F04D01F0B8BC90
:105800005A464046089B00F01FFF32463B4601F0D7
:105810002FFA4246534601F0B9FB10B022462B4600
:10582000BDE8F04D01F0B2BB009840B3DDE90401E2
:105830001F4A204B01F01CFA80468A465A462046F1
:105840002946089B01F094FC32463B4601F010FAD1
:105850004246534601F08CFC22462B4601F088FC60
:1058600004460D46DDE90401134A144B01F000FA29
:1058700010B022462B46BDE8F04D01F079BC0B4636
:105880005A462046294601F073FC32463B4601F059
:10589000EFF910B022462B46BDE8F04D01F076BB83
:1058A0000000F07F645F09000000F03F062D00005B
:1058B000763C7935EF39EA3D0000E0FE422EE63FC6
:1058C0005555D53F0000E03F86EBF9FFE62A000082
:1058D000E42A00004FF4A060FDF7F6F9FFF7EEFDB3
:1058E0004FF4E13000F002FEFDF700F9FCF790FA0A
:1058F000FDF7A8F8FCF7D0FAFDF78EFE4748FDF754
:1059000093FEFDF765FF40F2CF2142F20F70FEF7E4
:10591000F2FDFDF729F90120FFF7B4F8FEF7E0FAF0
:10592000FEF7E0FFFEF7CAFF3D4C4FF0804A04F15E
:10593000A00B04F1280932210020FCF7DBFE01F066
:1059400047F96FF00B0202F016F8364A364B01F0B9
:105950008FF9012202F00FF800F044FE2060FDF7FD
:1059600021F9E060A2685BF8221001F083FE01F0EB
:10597000E9FC0E466168054659F8210001F0E2FC99
:105980000022534600F056F8062201F0F4FF2A46A2
:10599000334600F015FF00F025FE2061002051463F
:1059A000FFF7EAFD06460D464FF07E50216901F0F3
:1059B00057FD01F0C7FCFFF7DFFD32462B4600F034
:1059C000FFFE0746884600205146FFF7D5FD0E46EC
:1059D0006168054659F8210001F0B4FC00225346E5
:1059E00000F028F8FFF7C8FD2A46334600F0E8FE2D
:1059F0003A46434600F028FE00F0F4FD6061FEF7F1
:105A0000ADFAE06801F09EFC02460B4607A000F0EC
:105A1000A3FD4FF47A70FFF76FFD8CE718010020AB
:105A2000000000209A99999999990B406C75783DDE
:105A300025660A002DE9F04D1D460C4698B0174624
:105A400021F0004123F00043002814BF4FF0010C67
:105A50004FF0000C0CEB440CFE4A0CEB02064FEA34
:105A6000620C66452BD33E0018BF012606EB4506A7
:105A70001644F94A964222D3F84A53EA070C02D058
:105A8000944205D148B918B000201146BDE8F08D08
:105A9000002808BF4FF0000C01D04FF0010C0CEBB8
:105AA000440212F5001F0AD8002F14BF4FF0010C5A
:105AB0004FF0000C0CEB450212F5001F07D918B08F
:105AC0003A462B462146BDE8F04DFFF7D8BC0022F0
:105AD000DFF88CA3002CB8BF534526DADFF884C367
